:0200000460009A
:10000000464346420004015600000000010303007D
:100010000101000001040000400000000000000099
:1000200000000000000000000000000000000000D0
:1000300000000000000000000000000000000000C0
:1000400000000000010406000000000000000000A5
:100050000000200000000000000000000000000080
:100060000000000000000000000000000000000090
:100070000000000000000000000000000000000080
:10008000EB04180A063204260000000000000000FD
:100090000504012400000000000000000000000032
:1000A0006B0418080832042600000000000000005D
:1000B0000604000000000000000000000000000036
:1000C0008104042400000000000000000000000083
:1000D00020041808000000000000000000000000DC
:1000E00001040420000000000000000000000000E7
:1000F0003204180804220000000000000000000084
:1001000090041830002400000000000000000000EF
:100110000204180800200000000000000000000099
:100120003504000000000000000000000000000096
:10013000600400000000000000000000000000005B
:10014000F5060000000000000000000000000000B4
:100150005204180800000000000000000000000029
:10016000000000000000000000000000000000008F
:10017000000000000000000000000000000000007F
:10018000000000000000000000000000000000006F
:10019000000000000000000000000000000000005F
:1001A000000000000000000000000000000000004F
:1001B000000000000000000000000000000000003F
:1001C000000100000010000000000000000000001E
:1001D000008000000000000000000000000000009F
:1001E000000000000000000000000000000000000F
:1001F00000000000000000000000000000000000FF
:10100000D1002043002000600000000088460660F8
:1010100020100060001000600000000000000000D0
:1010200000000060E0EC060000000000FFFFFFFF92
:10200000000002201901036051FF026055FF0260C9
:102010004DFF02604DFF02604DFF026000000000B6
:1020200000000000000000000000000059FF0260F6
:102030004DFF026000000000B9E90260D1F10260CA
:1020400065FF026069FF02606DFF026071FF026060
:1020500075FF026079FF02607DFF026081FF026010
:1020600085FF026089FF02608DFF026091FF0260C0
:1020700095FF026099FF02609DFF0260A1FF026070
:10208000A5FF02604DFF02604DFF02604DFF026040
:10209000A9FF0260ADFF0260B1FF0260B5FF026000
:1020A000B9FF0260BDFF0260C1FF0260C5FF0260B0
:1020B000C9FF0260CDFF0260D1FF0260D5FF026060
:1020C000D9FF0260DDFF0260E1FF0260E5FF026010
:1020D000E9FF0260EDFF02604DFF02604DFF02600C
:1020E0004DFF02604DFF02604DFF02604DFF026038
:1020F0004DFF02604DFF026095DF02604DFF026000
:102100004DFF02604DFF02604DFF02604DFF026017
:102110004DFF02604DFF02604DFF02604DFF026007
:10212000F1FF0260F5FF0260F9FF0260FDFF02604F
:10213000010003604DFF02604DFF02604DFF026031
:102140004DFF02604DFF02604DFF02604DFF0260D7
:102150004DFF02604DFF02604DFF02604DFF0260C7
:102160004DFF02604DFF02604DFF02604DFF0260B7
:102170004DFF02604DFF02604DFF02604DFF0260A7
:1021800021D9026031D9026041D9026051D902607F
:1021900061D9026071D9026081D9026091D902606F
:1021A000A1D90260B1D90260050003600900036093
:1021B0004DFF02604DFF02604DFF02604DFF026067
:1021C0004DFF02604DFF02604DFF02604DFF026057
:1021D0004DFF0260C1F202604DFF02604DFF0260E0
:1021E0004DFF02604DFF02604DFF02600D00036075
:1021F000110003604DFF02601500036019000360C9
:102200002FC7026019C702601D0003602100036030
:102210004DFF02604DFF02604DFF02604DFF026006
:102220004DFF02604DFF02604DFF02604DFF0260F6
:102230004DFF02604DFF02604DFF02604DFF0260E6
:102240004DFF02604DFF02604DFF02604DFF0260D6
:102250004DFF02604DFF02604DFF02604DFF0260C6
:102260004DFF02604DFF02604DFF02604DFF0260B6
:102270004DFF02604DFF02604DFF02604DFF0260A6
:102280004DFF02604DFF02604DFF02604DFF026096
:102290004DFF02604DFF02604DFF02604DFF026086
:1022A00025000360290003602D0003604DFF0260DC
:1022B000310003604DFF02604DFF02604DFF026080
:1022C0004DFF02604DFF02604DFF02604DFF026056
:1022D0004DFF02604DFF02604DFF02604DFF026046
:1022E0004DFF02604DFF02604DFF02604DFF026036
:1022F0004DFF02604DFF02604DFF02604DFF026026
:102300004DFF02604DFF02604DFF02604DFF026015
:102310004DFF02604DFF02604DFF02604DFF026005
:102320004DFF02604DFF02604DFF02604DFF0260F5
:102330004DFF02604DFF02604DFF02604DFF0260E5
:102340004DFF02604DFF02604DFF02604DFF0260D5
:102350004DFF02604DFF02604DFF02604DFF0260C5
:102360004DFF02604DFF02604DFF02604DFF0260B5
:102370004DFF02604DFF02604DFF02604DFF0260A5
:102380004DFF02604DFF02604DFF02604DFF026095
:102390004DFF02604DFF02604DFF02604DFF026085
:1023A0004DFF02604DFF02604DFF02604DFF026075
:1023B0004DFF02604DFF02604DFF02604DFF026065
:1023C0004DFF02604DFF02604DFF02604DFF026055
:1023D0004DFF02604DFF02604DFF02604DFF026045
:1023E0004DFF02604DFF02604DFF02604DFF026035
:1023F0004DFF02604DFF02604DFF0260FFFFFFFFD7
:10240000024B5A69026058610020704700080020A2
:10241000024B5A6912685A61704700BF00080020D9
:10242000024B9A69C0E900219861704700080020BA
:10243000044A93691968916110B15A6818461047A7
:10244000704700BF0008002038B50446044DAB6952
:102450000BB1A34200D338BD0120FFF7E9FFF6E737
:1024600000080020C460056146618761C0F81C80D7
:10247000C0F82090C0F824A0C0F828B0C0F82CD034
:1024800080ED0C8B80ED0E9B80ED10ABC0F808E06A
:10249000FFF7B6BF124D6C6908B50CB92CF095F872
:1024A00060602046FFF7D0FF23686B612046C46858
:1024B000056946698769D0F81C80D0F82090D0F86B
:1024C00024A0D0F828B0D0F82CD090ED0C8B90ED53
:1024D0000E9B90ED10ABD0F808E00120704700BFD4
:1024E0000008002010B50021044634F0BDFC18B9E6
:1024F00014B1204634F0B4FB10BD002134F0B4BC5C
:1025000010B50121044634F0AFFC18B914B12046CF
:1025100034F0A6FB10BDFFF7E5BF10B501220C4655
:1025200034F0C6FC18B914B1204634F099FB10BD44
:1025300034F0BEBC34F0B4BB0346064A506A1A6895
:102540004168C1F31E018A4202D3521A1A607047D1
:102550000068F5E700080020014441F20553884275
:1025600004D398B2012838BF0120704703EB43130E
:1025700010F8012B5340F2E7034B044A5A62002241
:10258000C3F82C23704700BF0008002014E1056049
:102590002DE9F04781460F46002942D0FFF7DCFFC6
:1025A000214B82465C6A0CB9204636E094F907302C
:1025B0000025E668002B06F1FF3616DB013604F134
:1025C0001808B54215D32468EDE706EB05083A462E
:1025D00048464FEA580808F1060354F823102CF037
:1025E000D3FF0028CCBF45464646731B012BECD8D1
:1025F000E4E7236933F815309A4510D163695B5DD0
:102600009F420CD13A46494658F825002CF08DFFE0
:1026100028B96068C0F31E002844BDE8F087013582
:10262000CFE70120F9E700BF000800202DE9F843BB
:1026300080460E46FFF7ACFF0246002840F092802D
:10264000FF2E03D949494A4834F0B2FB494C751C66
:10265000D4F82C0390B1D4E9CC132B448B4229D964
:102660002944FFF765FF0746D8B90246D4F834136A
:10267000D4F82C03FFF75CFFC4F82C73802D2F4691
:1026800038BF80273846FFF738FFC4F82C03D0BB8B
:102690002846FFF732FFC4F82C0398BB284634F0D5
:1026A000DFFAD4F830332B44C4F83033D4F82C3369
:1026B000002BE3D0D4F834334146D4F82C734FF0D8
:1026C000000832461F442B443846C4F834332CF0FB
:1026D000CBFE3146384607F80680FFF73DFF636AB8
:1026E0008146D3E90253AB422AD36D000A2D38BF8D
:1026F0000A25C5EBC5001830FFF7FFFE48B9C4F83E
:102700002C03CBE72F460023C4F83073C4F83433CE
:10271000D0E700F11803626A03EB850302600361EE
:1027200003EB450343615368D268C3F31E03C0F84B
:102730000C801344426863F31E02C0E90125606205
:10274000636AD3E903025B6922F81090821D1E546C
:10275000636A43F82270DA680132DA605A68C2F3B9
:102760001E0202441046BDE8F88300BFEB6F036011
:10277000ECD603600008002010B504462CF0E7FEFC
:1027800001462046BDE81040FFF750BF07B5019055
:1027900001A8FFF7D1FE019A036933F8120003B0D4
:1027A0005DF804FB07B5019001A8FFF7C5FE019B8A
:1027B0004269D05C03B05DF804FB07B5019001A845
:1027C000FFF7BAFE019B063350F8230003B05DF813
:1027D00004FB13B5019001A80C46FFF7ADFE019B69
:1027E0004269D25C063350F82300226002B010BD6B
:1027F0002DE9F8431D460023074688460360164628
:102800000B6013602B60154BDFF854905C6A0CB1C1
:102810004C4505D12B68326813442B60BDE8F88322
:102820003B6801333B60E268D8F8003013446269CA
:10283000C8F80030E368D1188A4207D3204634F044
:10284000DFFA2B68246818442860E0E7336812F840
:10285000010B013303443360EEE700BF00080020A2
:1028600014E105602DE9F8430D4B0E4F5C6ADFF86B
:102870003880DFF838900CB1BC4201D1BDE8F88354
:1028800004F11805E36805EB8306B54201D324681B
:10289000F1E755F8042B4146484600F005FDF4E702
:1028A0000008002014E10560F36F036000BB0360C3
:1028B00030B50023202411F8012F0AB9027030BD71
:1028C000120600F101051ED50BB1047028460B78E5
:1028D000114A03F07F0363B9013A12F8013F05463C
:1028E000013013F0800F0BD003F07F032B70012316
:1028F000E1E712F9015B002DFBDA013BDBB2EAE70D
:1029000000F8013CE9E7012B04BF047028460B786E
:1029100000F8013B0223CEE7FA6F036038B5446844
:10292000054603682144994210D9037B1BB100215D
:10293000074834F03DFA01F11004806824F00704E0
:1029400008342146FFF7E9FD2C60A86038BD00BFC0
:10295000ECD6036070B504460E4611461546FFF7E7
:10296000DDFF31462A46D4E9013018442CF0A3FD9E
:1029700062682A44626070BD70B546680446B14220
:1029800028BF31460D460121FFF7C8FFA368681C28
:10299000721B591918442CF08EFD6368A06801332E
:1029A0002844636070BD012938B538BF0121044651
:1029B0000025084621606560FFF794FD2573A0603F
:1029C00038BD38B505460C460131FFF7ECFF6C60A9
:1029D00038BD00230160C0E9013201230373704751
:1029E00038B514460546FFF7DEFF024B25606360ED
:1029F00038BD00BF55290060037B10B5044613B9EC
:102A00008068FFF797FD0023A36010BD13B5019008
:102A10001020FFF767FD04460199FFF7C4FF204629
:102A200002B010BD10B5044648B1037B13B98068ED
:102A3000FFF780FD2046BDE81040FFF77BBD10BDCD
:102A400038B5037B04460D461BB10021064834F01F
:102A5000AFF9016880682944FFF75FFD2368A06033
:102A60001D441844256038BDECD6036038B50446D3
:102A70000D46FFF753FFD4E901301D44184465604B
:102A800038BDD0E9002310B59A42044602D1012195
:102A9000FFF7D6FF0021D4E90132D154A06810BD60
:102AA00010B50C460121FFF7E1FF047010BD7F292E
:102AB000F8B50C46CEB204D80121FFF7D7FF067057
:102AC000F8BD06F03F06B1F5006FC1F3871546F07B
:102AD000800607D265F03F050221FFF7C7FF467069
:102AE0000570EDE705F03F05B1F5803FC1F307370D
:102AF00045F0800508D267F01F070321FFF7B6FFF6
:102B0000457007708670DBE7A40C07F03F070421CF
:102B100064F00F0467F07F07FFF7A8FF857004706B
:102B20004770C670CCE713B50446084601912CF0F7
:102B30000EFD01990246204602B0BDE81040FFF7A5
:102B400009BF10B51446FFF717FF047010BD10B58C
:102B50001446FFF711FF047010BD43688B422CBF71
:102B6000591A00214160704738B504461546084699
:102B700062688A4203D929448A4201D8606038BD1C
:102B8000A368521A184419442CF095FC6268521B31
:102B90006260F4E70846114634F07AB937B5054665
:102BA000084601912CF0D3FC044620B102466B6824
:102BB000019928689847204603B030BD2DE9F74FAA
:102BC00089469DF8301017460D9A11F0DF0F064622
:102BD000A2EB07023DD030290CA8254913BF80463F
:102BE0004FF0100A88464FF0010A13F0800535D0E7
:102BF00002EBD2746510A2EB6404002D35DDAB4608
:102C0000DA45524673684146A8BF5A463068019279
:102C10009847019AABEB020BBBF1000FF0DC2FB130
:102C20003D4473683A46494630689847002C0CDDAD
:102C30002544A245574673684146A8BF27463068D9
:102C4000E41B3A469847002CF3DC284603B0BDE865
:102C5000F08FDFF820804FF0100AC6E713F0010470
:102C600001D11546C9E71446D9E70025D7E700BFCB
:102C700019BB036008BB03602DE9F043064689B029
:102C80000020119D9DF84880139F8DF80F000AB316
:102C900081421ADA2D2249428DF80F20109A08AC91
:102CA0000DF11009A2F10A008E46B1FBF3FC03FB03
:102CB0001C126146092A8CBF1218303204F8012D0B
:102CC0004C450ED07345EFD90BE0A80727D52B2232
:102CD0008DF80F200029E1D130230DF11F048DF86C
:102CE0001F3015F040099DF80F301CD023B301228E
:102CF0002B460DF10F013046013FCDE90082FFF771
:102D00005DFF814608AA2B4621463046121BCDE9BD
:102D10000087FFF753FF484409B0BDE8F0836A0716
:102D2000D8D52022D4E7002BECD004AA9442E9D9CC
:102D300004F8013C013CE5E79946E3E72DE9F04F53
:102D400093B01E4681460C469DF8743092461C9DF9
:102D50000793CB07DDE91E870BD4880703D10968E9
:102D60007E4B994205D020460AF080FE400040F09C
:102D7000010415F0810306D1079A302A03D1B84522
:102D8000B8BFB8461F4620460DF1280B0EF09AF842
:102D9000002818DBA90712D52B230DF129018DF886
:102DA0002830EB06F6B21DD5BAF1020F0DD1302056
:102DB0000B4603F8020B701C4870194612E06A07B4
:102DC00001D52023E9E75946EBE7BAF1080F61D1B5
:102DD000A8054FF030030B7049BF06F10E03013117
:102DE0004B700231002315F0200FA1EB0B020EA84F
:102DF0000B700CBF19462C21012F0692C8BF45F05D
:102E000040050B9010208DF8273015F04002CDE9D9
:102E10000C030592CDE9026146D00DAA0CA90BA8BE
:102E2000CDE900A323460DF025FF037882462D2B24
:102E300006D18DF8273000F1010A0D9B013B0D935F
:102E4000012F40F384800D9C059BBC42B8BF3C46DB
:102E50002BB19DF8273003B10134069B1C44A045DB
:102E60002DDD15F00103A8EB040429D126461C46EC
:102E700025F001054EB120230196394948460093BB
:102E800000231A46FFF79AFE0646059BD3B9302366
:102E900007933AE0BAF1100FA4D130200B4603F8A3
:102EA000020B06F1170087E70AAB0DAA0CA90BA8C5
:102EB000CDE900A323460DF0DDFE8246C0E70024E5
:102EC0000026D5E7302307939DF827305BB1002318
:102ED00001220DF12701484608F1FF38CDE9003203
:102EE000FFF76CFE0644069B63B10023012259469E
:102EF0004846CDE90032069AFFF760FE069B06447D
:102F0000A8EB0308012FD8BF4746079B51460D9AEF
:102F1000484600932B460197FFF750FE06444CB1FC
:102F200020230F4948460194009300231A46FFF7D7
:102F300045FE06440B980EAB984201D0FFF7FAFA13
:102F4000304613B0BDE8F08F00242646BCE7059B51
:102F5000002BF9D11C461E464746D6E788DB0360A6
:102F6000D35A06602DE9F04316468BB007469846C3
:102F7000B207DDF8489040D416F0040F0CBF0023D0
:102F800020230A4600932021139B02A809F01CFC71
:102F9000F305044610D5431C1F2B0DD800F1280261
:102FA00000210DEB0204252204F8202C03F1280255
:102FB0001C466A4402F8201C16F040051FD09DF8FC
:102FC00008302F2B4FF000031BD8012202A93846EE
:102FD00009F1FF39013CCDE90032FFF7EFFD0DF1BA
:102FE00009010546334622463846CDE90089FFF7F8
:102FF000E5FD28440BB0BDE8F0832B23C1E702A90F
:10300000F0E702A91D46EDE72DE9F04F074689B02C
:1030100014460025DFF88C820B461E4613F8012B60
:1030200092B9B14213D30B78002B00F034810131F7
:1030300020234FF0000A084610F8012B82B94FF008
:1030400000094FF00A0C2AE0252AE6D1E9E7A6EBB1
:1030500001097B6838684A464D4498473146E2E7A3
:103060002D2A03D14AF0010A0146E4E72B2A02D1B6
:103070004AF0020AF8E7202A02D14AF0040AF3E7EC
:10308000212A02D14AF0080AEEE7302AD7D14AF0C5
:10309000400A1346E8E70CFB0929A9F130090E465E
:1030A00011F8012BA2F130000928F4D92E2A33D1CE
:1030B00072782A2A0FD00A464FF00A0C00211646D1
:1030C00012F801BBABF13000092807D80CFB01BB9B
:1030D000ABF13001F3E7023654F8041B21EAE17B3F
:1030E00032786C2A08BF01363178002900F0D3808D
:1030F00078295FD8572912D8472959D8442959D94E
:1031000007345246384624F00704CDE9009BB4EC5E
:10311000020BFFF727FF5FE04FF0FF3BE0E7A1F175
:103120005802202A46D801A050F822F067320060E9
:10313000B5310060B5310060B5310060B531006077
:10314000B5310060B5310060B5310060B531006067
:10315000B5310060C3310060E53100604B32006082
:10316000013100600131006001310060B531006063
:10317000B5310060B5310060B5310060B531006037
:10318000B5310060B5310060B53100608732006054
:10319000F9310060B531006023320060B531006064
:1031A00067320060B5310060B531006067320060A1
:1031B000502968D07B68012231463868013598472C
:1031C0000BE054F8042BCDE9003953463AB1042200
:1031D00033493846FFF7F2FC0544711C1CE7052211
:1031E0004146F6E754F8042B07A98DF81C2001226C
:1031F000CDE900395346ECE707A954F8040B0493D2
:10320000FFF7E7FABBF1FF3F0146049B04D0079AA2
:10321000934538BFCDF81CB0079ACDE90039534625
:10322000D7E754F8041B0593084604912CF08FF956
:10323000BBF1FF3F0246DDE9041302D0584528BF29
:103240005A46CDE900395346C3E7CDE90239612337
:103250000122CDF804A000930A2354F8041B384639
:10326000FFF70AFDB8E74A1C21F00F01CDF804A0D2
:1032700002F006020F39CDE90239C9B2C2F11003DA
:1032800000910022E9E7CDE902396123CDF804A0DD
:1032900000931023F5E7284609B0BDE8F08F00BF82
:1032A000F4BA0360F9BA03600EB403B503AA52F886
:1032B000041B0192FFF7A8FE02B05DF804EB03B017
:1032C000704790F9001002460378002901DB184688
:1032D000704703F07F004023184206D112F8013FE7
:1032E00003F0C001802904D0704720EA03005B0886
:1032F000F2E703F03F0343EA8010EFE7431C184670
:103300000133027802F0C002802AF8D070470346E9
:103310000020994200D8704711F8012D02F0C00238
:10332000802A18BF0130F4E7014403460020994287
:103330001A4600D870471278013302F0C002802A82
:1033400018BF0130F3E700007F289DBF024B185CD7
:10335000C0F34000002070472ABB03607F289DBF58
:10336000024B185CC0F3C000002070472ABB03600A
:103370007F289DBF024B185CC0F38000002070477F
:103380002ABB03607F289DBF024B185CC0F38010EE
:10339000002070472ABB03607F2809D8064B1B5CBE
:1033A00013F00C0F06D1A0F15F035842584170474B
:1033B00000207047012070472ABB03607F289DBF13
:1033C000024B185CC0F30010002070472ABB03605A
:1033D0007F289DBF024B185CC0F34010002070474F
:1033E0002ABB036008B50246FFF7E8FF00B12032B0
:1033F000104608BD08B50246FFF7EAFF00B1203AC3
:10340000104608BD3038092884BF20F02000073856
:10341000704701440246002010B5E524914203D8CC
:10342000B0FA80F0400917E012F8013B30B103F028
:10343000C003802B11D10138C0B2EFE7BF2B09D9EF
:10344000F72B09D8D80800F0060044FA00F000F085
:103450000300E3E71B06E1D510BD0020FCE70239BD
:1034600081420B4603D31A880239002AF8D002336E
:10347000181A40107047B2EB131F70B505464FEA9B
:10348000131615D9901B03F00F0401EB46010246F9
:103490000E46012A31F8023B18BF3368013A23FA7D
:1034A00004F39BB225F8023BF2D103B9013870BD99
:1034B0000020FCE7F0B5059F0024D21B2646A7425A
:1034C00010D100EB470C002401EB4701A24214D1BC
:1034D0000CEB42031EB1012102332CF81210181A12
:1034E0004010F0BD31F8145033F814C06544354431
:1034F00020F814502E0C0134E1E731F81450354413
:103500002CF814502E0C0134E0E7F0B4049F002591
:10351000D21B2C46AF420BD100EB4706002301EB38
:1035200047059A420FD106EB4201F0BCFFF797BF67
:1035300031F81560344433F81560A41B20F81540A9
:1035400024140135E6E735F813100C4426F813402F
:1035500024140133E5E72DE9F043079C0239DDF837
:1035600028E0154684464FF6FF78A4EB0209DDE912
:10357000087655B900EB42011FB10123023120F852
:103580001230BDE8F043FFF76ABF31F8024F013D4A
:103590004444264405EB0904AC4296BF33F8024B81
:1035A0004FF6FF744444744486EA040E360C17FA4E
:1035B0008EF74FEA144E2CF8027B3F0CD9E7022914
:1035C00038B538BF0221044680680D4618B123681B
:1035D000B1EB930F07D96900FEF79FFF2368A06046
:1035E00065F39F03236038BD38B504460C20FEF711
:1035F00079FF054623682278C3F39D0023F0030377
:1036000002F00102400013432B6063686B60FEF719
:1036100069FFA8602268A168C2F39D0252002BF0E6
:1036200023FF284638BD994210B511D313D800EBBB
:10363000410002EB410209B9084610BD30F8023DD5
:1036400032F8024D1B1B002B02DB04D10139F2E7DB
:103650004FF0FF30F1E70120EFE710B5044638B135
:103660008068FEF767FF2046BDE81040FEF762BFA6
:1036700010BD38B50C4602210546FFF7A0FF002C0F
:103680002B78B5BF012200226142214662F300037C
:1036900001222B70AB68023B23F8021F090C104675
:1036A00002F10102F8D1686038BD0023C0E900339F
:1036B0008360704728B103789B0702D48068FEF7C7
:1036C00039BF704738B505460C464968FFF777FFA4
:1036D00022782B78A86862F300032B706368A168D6
:1036E0006B606268BDE8384052002BF0BDBE0A46F0
:1036F00029B90178426062F3000101707047FFF759
:10370000B8BF08B5FFF7D1FFBDE80840FFF7EFBF2E
:10371000920042F002020260002210B4C0E90121CE
:103720005DF8044B1946FFF7E2BFF8B514461D4695
:103730009DF8187004210646FFF741FF22462B46EC
:1037400027B1002D0CDA624265EB4503317867F34F
:10375000000131700021716052EA030102D1F8BD0D
:103760000027F3E7D6E901104C1C746020F8112003
:10377000120C42EA03421B0CEEE72DE9F84353EC2E
:10378000102B1E460378074610EE105AF20F62F314
:103790000003037047F6F07313EA164207D13B7833
:1037A0006FF300033B7000237B60BDE8F8839A420F
:1037B000F5D0C6F30A52A2F2FF34002CEFDB04D19D
:1037C0000121BDE8F843FFF754BFA2F2EF38C6F37A
:1037D0001306B8F1000F46F48016B8BFA2F578784A
:1037E000332C4FEA28183FDCC4F13402A4F114034F
:1037F000C4F1140406FA03F3D54026FA04F4D640C3
:103800001D4325430024A14641463846FFF7D7FE15
:10381000C7F80480B9F1000F05D04FEA4902002132
:10382000B8682BF060FE9CB105FA04F2BB6823F87F
:103830001920C4F11003103409F10109A3F1200289
:10384000DD4006FA04F426FA02F2DE402543154371
:103850004B469845A9D0BA6822F813502D0C013375
:1038600045EA0645360CF4E7A2F233430C34002B4C
:1038700004F00F04B8BFA2F224434FEA2319C3E7B0
:103880002DE9F8438F18C2F35B0204460D46511C24
:103890009846089EFFF793FE237829461FFA86FC78
:1038A00068F30003237000236360B942084602D323
:1038B000401BBDE8F88302780131A2F13003092BE7
:1038C00005D9A2F14103192B14D8A2F13703B34251
:1038D000EED2D4E901E0F0468146B8F1000F10D1F4
:1038E00000EB4E0213B1023220F81E30121A5210B1
:1038F0006260DAE7A2F16103192BD9D8A2F157036C
:10390000E5E7B9F8002008F1FF3802FB0C3329F88D
:10391000023B1B0CE1E7F8B5044615461E46C1B153
:10392000531E4FF0FF371E44E90020460F310909AE
:10393000FFF745FE237800216FF3000361602370D9
:103940004DB9D4E9011000EB4101FFF788FD60603B
:10395000F8BD0127E8E700230F290ADC3278013D92
:103960003E4402FA01F201F1080143EA02039BB26C
:10397000F2D162681039501C6060A06820F81230E3
:10398000DEE738B50B780446057803F0010305F04F
:103990000100181A08D1D1E90132D4E90110FFF76A
:1039A00042FEEB0748BF404238BD884210B504468E
:1039B00001D0FFF787FE23786FF30003237010BD5B
:1039C000884210B5044601D0FFF77CFE63683BB126
:1039D0002378C3F30002C2F1010262F300032370F3
:1039E00010BD88421FB5044601D0FFF76BFE626828
:1039F00062B901212046FFF7E2FD0123A26813808E
:103A00006360237843F00103237010E02378D90723
:103A10000FD56FF30003A168237001230846ADF8AA
:103A20000E3000930DF10E03FFF76FFD606004B0E0
:103A300010BD511C2046FFF7C2FD0123D4E901212E
:103A4000ADF80E30009308460DF10E03FFF732FD7E
:103A50006060D6E72DE9F8434B6805460E461446EC
:103A600003B12AB931462846BDE8F843FFF72ABE1C
:103A700002F10F014FEA111803EB1111FFF79FFD3F
:103A800014F00F04A8684FF0000C08BF1024D6E90A
:103A90000131C4F1100408EB030701EB430E194692
:103AA00007F10042013A00EB42008146E9B96FF0AC
:103AB00001022CFA04F45343C218C452C8F10103A2
:103AC00002EB430308F1FF32184652002BF00BFDC6
:103AD000831E17B133F817209AB12B786F603278B4
:103AE00062F300032B70BDE8F8833EF8022D013924
:103AF00042EA0C0C2CFA04F24FEA0C4C29F8022989
:103B0000D4E7013FE5E7F0B50E46496885B00546C4
:103B1000144601B132B93146284605B0BDE8F0403F
:103B2000FFF7D0BDFFF74BFD2346A868D6E901217A
:103B3000FFF7A1FC2B786860327862F300032B70EA
:103B4000DB072DD5002322097168ADF80E309942AC
:103B500001D093420FD1914222D9B36804F00F04EF
:103B600033F81220012303FA04F4013C224213D05B
:103B7000ADF80E3008E0B76837F8137057B101237D
:103B80009142ADF80E30E8D8A968012350B90B80F6
:103B90006B6005E00133DAE7BDF80E30002BF3D19E
:103BA00005B0F0BD0246009308460DF10E03FFF785
:103BB00081FC6860F4E773B50C4616460546D2E909
:103BC0000132D1E90110FFF72EFD0028BEBF2346C8
:103BD00034461E462378616832785340DB071BD495
:103BE00001312846FFF7EBFC7368A8680093B368BF
:103BF000D4E90121FFF75EFC686023786A68C3F3AB
:103C00000003002A0CBF002303F001032A7863F3AA
:103C100000022A7002B070BD2846FFF7D0FC73681E
:103C2000A8680093B368D4E90121FFF76EFCE3E7CD
:103C3000F7B50D4616460446D2E90132D1E9011026
:103C4000FFF7F1FC0028BDBF2B46354601270027B2
:103C5000B8BF1E462B78696832785340DB0714D50D
:103C600001312046FFF7ABFC7368A0680093B3688E
:103C7000D5E90121FFF71EFC60606268237882B9F4
:103C800062F30003237003B0F0BD2046FFF797FCFA
:103C90007368A0680093B368D5E90121FFF735FC8C
:103CA000EAE72A7802F00102002FE9D0C2F101020E
:103CB000E6E72DE9F04F15464A680E4685B06B6879
:103CC00004469A423EBF0B462E461D463378716825
:103CD000DB0721D42B7813F001071DD1FFF76FFC10
:103CE000A068B6683B46D5E9011C99420BD100EBB0
:103CF0004101FFF7B4FB237860606FF3000323708A
:103D000005B0BDE8F08F36F813203CF813502A4078
:103D100020F813200133E8E701312046FFF74FFC7C
:103D200096F800A02B780AF00108D6F804C08AEAB9
:103D300003074AF3000AA06803F00109FF4343F3B5
:103D40000003834607F0010E47F300079BB2BFB2A2
:103D5000009302971FFA8AF7D5E901120197B76815
:103D6000A1EB0C01A7F1020A67460391BFB900EB72
:103D70004C01BEF1000F03D00123023120F81C30AA
:103D8000FFF76DFB606033782A78C3F30003C2F35A
:103D900000021340227863F300022270B0E73AF881
:103DA000021F013F019B5940039B8844D919B94226
:103DB0009BBF32F8021B009B00995940029B89442B
:103DC00008EA09014FEA19494FEA184859401EFA12
:103DD00081F14FEA114E2BF8021BC7E72DE9F84F8E
:103DE00016464A680D46044673689A423EBF0B4623
:103DF00035461E462B786968DB0731D4327812F0DD
:103E000001072DD1FFF7DBFBA9686D683A46D4F8AE
:103E100008C0D6E9013EED1A934212D101EB4301ED
:103E200000220CEB4303954214D103EB4503A3EBB3
:103E30000C035B10636023786FF300032370BDE80D
:103E4000F88F31F812003EF8126030432CF812005F
:103E50000132E1E731F8120023F812000132E2E703
:103E600001312046FFF7ABFB2A783378696802F00E
:103E70000108AD6803F00109A06842F3000243F3B2
:103E80000003A5F1020C92B282469BB20125D6E94D
:103E900001E70E46AEEB010E46B900EB4101FFF71C
:103EA000DEFA2378606043F00103C7E73CF802BF05
:103EB000013E8BEA020BD8440EEB060BB34596BFCE
:103EC00037F802BB9B468BEA030BD94448EA090B3F
:103ED0004FEA19494FEA18486FEA0B0B15FA8BF5B0
:103EE0002AF8025B2D0CD7E7F0B516464A680C4657
:103EF00085B0736805469A423EBF0B4634461E465F
:103F00002778616833785F4017F001073AD1FFF7EF
:103F100056FB237813F0010328D16168A868A768CD
:103F2000D6E9012C891A9A4211D107EB42070023E6
:103F300000EB4202994213D102EB4101FFF78FFAE5
:103F40002B7868606FF300032B7005B0F0BD37F875
:103F500013403CF81360744020F813400133E2E74B
:103F600037F8134022F813400133E3E7CDE9027735
:103F700001977368A8680093B368D4E90121FFF73B
:103F8000EAFADDE70131FFF71AFB3378A868DB4373
:103F900003F0010303932378DB4303F0010302934F
:103FA0000123019373680093B368D4E90121FFF7FB
:103FB000D2FA2B78686043F00103C5E74B682DE91E
:103FC000F04F044685B00E4615460BB1536843B911
:103FD00023786FF3000323700023636005B0BDE80E
:103FE000F08F81422ED1FFF7FFFAA5420646074621
:103FF00000D105466B68204671681944FFF7DFFA67
:1040000022680021A068C2F39D0252002BF06BFAD7
:10401000B368D4F808E00022D6F804900193F4467F
:10402000AB680EEB4908114602936B680393039B40
:10403000934231D0ACF10200DDF804B00023CDF89A
:10404000009018E0824204D1FFF7CEFA05460746F9
:10405000D0E70027CEE730F802AF53443BF802AB7D
:104060001946029B33F8123003FB0A1300990380B0
:1040700001391B0C009100990029ECD14146881CA4
:1040800013B10146A8F80030A1EB0E010CF1020CAF
:10409000013280464910CAE7616038462A78337891
:1040A0005340227863F30002227005B0BDE8F04F60
:1040B000FFF7D3BA4B6870B50546144613B11378B1
:1040C000DA0706D52B786FF300032B7000236B60A3
:1040D00070BD636823B90121BDE87040FFF7C9BA1C
:1040E0000846FFF781FA06462046FFF77DFA0121D0
:1040F00004462846FFF7BDFA636883B1A3681B88AE
:10410000DB0704D5324629462846FFF757FF01232F
:10411000D4E901210846FFF7AEF9606038B93046AE
:10412000FFF79BFA2046BDE87040FFF796BA32468B
:1041300031463046FFF742FFDEE72DE9F04F0C46EF
:1041400051688FB09046013105460293FFF737FA68
:10415000D8F804200021A8680026013252002BF074
:10416000C2F92B786E6020466FF300032B70D8F8ED
:1041700004100131FFF723FA41462046FFF7A2FA67
:10418000029BA768D4F8049038464946D3E9013A1F
:1041900001935246AB680393019BFFF744FA002852
:1041A00032D10123039A606013806B6023786168C9
:1041B000C3F3000200290CBF002202F0010262F3E7
:1041C0000003029A237098F8003012785340DB07FE
:1041D00017D56B682A78003B18BF012363F30002F0
:1041E0002A7071B14FF0FF310BA8FFF78AFA0BAAC2
:1041F00029462846FFF7DFFC029A21462046FFF7B2
:10420000DAFC0FB0BDE8F08F01DA6E60CEE7019BFB
:1042100003F10042013A4FEA420E3AF81230180414
:1042200006F1010153D5B3B2002107EB490B09F1A7
:10423000010027F81910BC4600930BF10209C3F1E5
:10424000100360600493CC4545D33AF81220009BDC
:1042500002FA03F30493019B012B0AD90AEB0E0225
:10426000009B32F8022CC3F11001CA40049911439B
:104270000491019BAAF1020AC01A039B686000F135
:104280000040013803EB400306930EF1020309934B
:1042900063680593059A019B934229D302F1004B71
:1042A000009B00200BF1FF3BC3F1100607EB4B0B0B
:1042B0005F4573D96FF000416B682BB15A180398B2
:1042C00030F81220002A74D06FF0004176E05B00D5
:1042D0000E469BB2A3E7BCF80060009B06FA03F30E
:1042E0001943049B2CF8021B26FA03F189B2AAE7B2
:1042F000BBF8001000203BF8022C049B864642EAE3
:104300000142B2FBF3F2099BABEB03031E46CDE97E
:10431000073AB3450ED8BBF800100844002838D13E
:10432000069BABF1020B23F802290693059B5A1E4C
:104330006260ADE7089BB6F8009033F8021F19FAE7
:1043400080F90893009B994041EA1E4E1FFA8EF1B6
:1043500051431FFA81FC090CA9EB0C0CC1EB204165
:1043600026F802CB01EB2C40D3E739F802CF009BB3
:104370000CFA03FC4CEA1E4EB6F800C011FA8EF19E
:10438000614426F8021B090CB345EED80844013AF3
:10439000C4E70021D146079E8E46F5E7BBF8002012
:1043A000009B42FA03F1B240014390B22BF802198C
:1043B0007EE7013B6B607FE7013B63606368002B36
:1043C0003FF4F4AE5A1837F81220002AF4D0EDE684
:1043D000F0B51F464B6885B004460D4616464BB1F6
:1043E0001378DA0706D47B68012B0BD1BB681B88D6
:1043F000012B07D123786FF3000323700023636040
:1044000005B0F0BD01212046FFF733F97368002B9A
:10441000F6D02846FFF7E8F805463046FFF7E4F8FF
:10442000064601A8FFF741F97368B3B1B3681B886A
:10443000DB070AD52A4621462046FFF7BFFD3B464B
:104440002246214601A8FFF778FE0123D6E9012183
:104450000846FFF710F8706048B901A8FFF72AF97D
:104460002846FFF7FAF83046FFF7F7F8C8E72A467C
:1044700029462846FFF7A2FD3B462A46294601A8C1
:10448000FFF75BFED0E7D0E901210346002001EBF6
:10449000420210B5914204D31B78DB0748BF40426B
:1044A00010BD32F8024D44EA0040F3E730B5D0E9E0
:1044B0000124002304EB4202944206D30278012037
:1044C000D20748BF5B420B6030BDB3F5004F04D24A
:1044D00032F8025D45EA0343EEE70020F4E72DE9F8
:1044E000F0470546D1B1981800264FF0010C03EBB8
:1044F00002093746D5E90184A4F1020EB8F1000F94
:104500000ED1B9B3C21A18462B7813F0010FBDE8CB
:10451000F04714BFFF2100212AF0E5BF1846E3E76A
:104520003EF8024F103744EA064695F800A0072FE0
:104530000AF0010A02DC08F1FF38DFE7B4B2BAF191
:10454000000F06D0E4435CFA84FC1FFA8CF4CCF331
:10455000072CE4B249B100F1FF3A00F8014C534591
:104560000BD0083F360A5046DFE782460AF8014B77
:10457000CA45F5E713441A1AC6E7BDE8F0870000FC
:10458000D0E901329FED0C0B9FED0D6B02EB430365
:104590009A4205D30378DB0748BFB1EE400B704762
:1045A00033F8021D07EE101AB8EEC77B00EE067B4B
:1045B000B0EE470BECE700BF000000000000000079
:1045C000000000000000F0402DE9F84F44688046EC
:1045D000894615469B469DF828A00B9E9CB982B142
:1045E000551E334615F8011F184639B9302303709C
:1045F000002300F8013F801BBDE8F88F03F8011B82
:10460000F0E73046F2E76400ABF13A0B2046FDF7E5
:1046100069FF07462246D8F808102AF025FF3146E0
:1046200032463819A0F1020C00236745644639D997
:1046300030331446392B88BF5B4404F8013B3B46BA
:1046400098429C4638D8BAF1000F0AD00123A4EB57
:10465000010CBCF1030F02BF941C82F801A021469B
:10466000F3B13846FDF766FF5DB128462AF06FFFCB
:104670002A18611E1346AB4229D8954288BF0020F4
:10468000044498F80030DB0744BF2D2304F8013BB5
:104690003346621E9A421FD80023A01B2370ABE74B
:1046A0002246BFE7248844EA0343B3FBF9F409FB3D
:1046B00014332CF80249B8E7BCF800C00233BCF14F
:1046C000000FBDD0BAF1000FEAD00023BFE713F806
:1046D000017D01F8017FCEE71978107803F8010B0E
:1046E00002F80119D6E7D0E9023293423DBF5A1CC5
:1046F000826018784FF0FF307047036810B50446A9
:1047000013B14068FDF716FF2046BDE81040FDF7E5
:1047100011BF0000F8B50C461F461646054610208E
:10472000FDF7E0FE054B8460C0E900743444C460CA
:104730006B60034B2860AB60F8BD00BFE7460060CC
:10474000FB46006002690A2A10B5044635D1836A27
:10475000013383620123A269E36263696261226FAC
:104760002361002A31D0616E8A423BBF501CA16E8A
:104770000022206738BF8A5CA2613BB9E2696366A8
:104780002261226A23676261626AA26163690D2BFA
:1047900008D10A22A3699342626103D1D4E90103DB
:1047A0009847A061A369013306D163695A1C03D0FD
:1047B0000A2B1CBF0A23A36110BDC36A092A04BFC8
:1047C000073323F007030133C5E7D4E90103984712
:1047D000A061DBE70369272B2BD0222B29D0A3F183
:1047E000620113291ED8174ACA40D2071AD5426956
:1047F000272A1ED0222A1CD0722B1CD1662A06D151
:104800008269272A15D0222A13D0722B15D1436929
:10481000622B0CD1806927280BD0A0F122035842CB
:1048200058417047662BF0D14269722AE8D00020C7
:10483000704701207047662BF6D0622BF7D1436991
:10484000722BE6E71100090038B504460D462069D1
:10485000431C02D10025284638BD0A2807D115B1CE
:10486000636B002BF7D02046FFF76CFFEFE7FEF7F6
:104870006BFD0028F7D12369232B08D12046FFF7D1
:1048800061FF23695A1CE2D00A2BF7D1DFE75C2BCA
:10489000E0D163690A2BDDD12046FFF753FFE2E741
:1048A000436E2DE9F04F044685B0A3B1036F93B971
:1048B00029216030FEF7F4F82369E361636923621C
:1048C000A3696362A36E1A7822615A7862619B7849
:1048D000A361032323670023012120466365FFF7BB
:1048E000B3FFA36A266B6364002EE36AA36407DA4E
:1048F0000823013684F84C30266305B0BDE8F08FFC
:1049000004D00723013E84F84C30F5E7002837D067
:1049100031462046FFF798FF06236FF00042E56A14
:1049200084F84C30013DD4E90F30991830F811105B
:104930008D42E2D019D9A16B8B4207D308314900CF
:10494000FDF7EBFDA36B20640833A363D4E90F32BA
:10495000591CE16322F81350236B01332363CCE726
:10496000013BE363236B013B2363E36B991830F84E
:1049700011108D42F4D3C0D0022384F84C30BCE730
:1049800025696F1C02D184F84C00B6E72046FFF77A
:1049900021FF8146002800F0D18184F84C60236912
:1049A000752B1CD0622B06D163690025722B18D1A0
:1049B000C846022717E0722B06D16369622B46D0E6
:1049C000662B46D10523D8E7662B45D16369722B48
:1049D000F8D04D464FF0000801270C2304E00025D5
:1049E000F8E7A84601270D2394F84C20002A37D178
:1049F00084F84C303FB12046FFF7A4FE022F02D1CD
:104A00002046FFF79FFE23692046222B14BF272351
:104A100022230093FFF796FE2369009A934222D146
:104A200063699A421FD120464FF0030AFFF78AFEBE
:104A30002046FFF787FE25B1AC4904F16000FEF780
:104A400072F8002304F1500704F1600B1CE000250C
:104A5000AEE70025C846BFE700253746A846BCE7B5
:104A60009A42C7D049E74FF0010AE4E70099914222
:104A700036D1013338460193FEF719F8019B2046E1
:104A80000193FFF75FFE019B2269511C00F05081EA
:104A9000BAF1010F02D10A2A00F04A815345E5D349
:104AA000194604F15000FEF758F801212046FFF79F
:104AB000CBFE2046FFF78EFE00287FF470AF1CE788
:104AC0002046FFF73FFE21697B2920D13846FDF7BC
:104AD000E7FF2046FFF736FE7B213846FDF7E0FF73
:104AE00021690DB17B29EBD05C2940F01C81204667
:104AF0000191FFF727FE23690199B8F1000F4DD00E
:104B000001933846FDF7D3FF019B1946E3E02821C6
:104B10005846FDF7C5FF636E00222169481C0FD07F
:104B200032BB3A290CD07D290AD0212920D16069D5
:104B30007238012821D8A0693A2801D07D281CD1DB
:104B4000D4E91921881810F8010C3D2807D1D21A90
:104B500019443846FDF7FEFE636E013B6366584616
:104B60002921FDF79DFF2C215846FDF799FFB3E75A
:104B700021F020005B280CD10132C9B25846CDE9A2
:104B80000132FDF78DFF2046FFF7DCFDDDE9013244
:104B9000C3E75D2808BF02F1FF32EEE7782B06D8A5
:104BA0005B2B0BD8222B75D054D80A2B50D0A3F1F5
:104BB0003001072900F2B0800323A6E0A3F15C02D4
:104BC0001C2AF4D801A151F822F000BF954C0060D6
:104BD000AF4B0060AF4B0060AF4B0060AF4B00606D
:104BE000414C00606D4C0060AF4B0060AF4B00600B
:104BF000AF4B00607D4C0060AF4B0060AF4B00607E
:104C0000AF4B0060AF4B0060AF4B0060AF4B00603C
:104C1000AF4B0060754C0060AF4B0060AF4B006065
:104C2000AF4B0060694C0060AF4B0060714C00609E
:104C3000814C0060794C0060AF4B0060E94C006033
:104C4000072194F84C300C2B69D13846FDF72FFF23
:104C5000002314E7552B13D0A9D8272B1AD04E2B9D
:104C6000A5D1234832F064F80D21EAE70821E8E7EE
:104C70000921E6E70A21E4E70B21E2E70C21E0E75E
:104C800094F84C200D2A07D15C2138460193FDF79A
:104C90000EFF019B1946D4E7752B0CBF0423082394
:104CA000002116E0204603930191FFF74BFD226996
:104CB00010460292FEF766FB002800F04F81019932
:104CC000029A090110460191FEF79CFB0199039B92
:104CD0000144013BE6D2481CBAD0B1F5881FB0D3DD
:104CE000012384F84C30B3E70223D9E7EFBB03601C
:104CF000F8BB03602046CDE90113FFF723FD2269CD
:104D00000199303A029B02EBC1016269303A072AED
:104D1000E1D8013BEED1DEE75C210193F1E6FF290A
:104D2000DED80D2BDCD1C9B23846FDF7B9FE8FE7CE
:104D300053453CBF032284F84C20B1E62846FEF7D9
:104D40000DFB054620691DB95F2801D07F283ED99B
:104D5000092304F15005C1B284F84C302846FDF710
:104D60009FFE2046FFF7EEFC2069421C1BD128461F
:104D70007D4FFDF786FE0025064657F8041B30469A
:104D80002AF0ECFB00281CD10F35EDB2122D84F86F
:104D90004C507FF4B2AD754BD3F83833002B0CBFB9
:104DA00011230F23E9E5FEF7D9FA40B920695F28FE
:104DB00005D07F2803D8FEF7DBFA0028D7D0217C66
:104DC000CCE7FFF69AAD0135242DD6D195E5FEF757
:104DD000CFFA68B321692E2935D10B2384F84C30E2
:104DE00004F150060B273046FDF761FE2046FFF721
:104DF000A9FC2069431C3FF480AD002D39D120F07F
:104E00002003452B35D16521304684F84C70FDF7E1
:104E10004EFE2046FFF796FC21692B2901D02D2953
:104E2000E7D13046FDF743FE2046FFF78BFCE0E775
:104E300023692E2B04D16069FEF79AFA0028C9D1A4
:104E400000264B4D35E00A23302984F84C30C7D179
:104E5000656945F02005A5F16203162B97BF454D06
:104E60000125DD40ED4398BF05F0010585F0010502
:104E7000B6E7FEF773FA28B121692E290DD184F81F
:104E80004C70CEE72069FEF773FA0028F4D123694D
:104E90002E2BF1D05F2BC7D02FE521F020034A2B1A
:104EA000BFD1ECE7652F01D0632F00D1013501366A
:104EB00001352F7817B12369BB42F3D12046FFF7A4
:104EC00041FC0FB9012358E5212F07D123693D2B60
:104ED000F8D12046FFF736FC3A234EE52E2F0FD1AE
:104EE00023692E2B02D163692E2B01D05D2344E56B
:104EF0002046FFF727FC2046FFF724FC0E233CE565
:104F00000335334615F8027C632F0FD0652F0DD083
:104F1000194AD35C03F0FD0284F84C30552A01D0C5
:104F2000592B13D1636B01336363E6E415F8012C4D
:104F300001362169914207D12046FFF703FC334631
:104F4000652FE5D00235DDE7632FFAE7562B02D057
:104F5000582A7FF4D2AC636B013BE5E7012301469D
:104F600084F84C306DE600BFBCBC03600008002034
:104F7000AABB0360012040008EBC03607FB501AD79
:104F80000646742085E80E00FDF7ACFA0446034699
:104F900095E8070043F8046B002583E80700012328
:104FA0006FF001021420C4E90A320A22C4E90C5548
:104FB000C4E90E23FDF796FA2021206404F1500085
:104FC000FDF7F1FC294604F16000FDF7ECFC236CD1
:104FD000204625671D802561C4E90555FFF7B2FB12
:104FE0002046FFF7AFFB2046FFF7ACFB2046FFF75C
:104FF00057FCA36C012B06D094F84C30062B1CBF39
:10500000072384F84C30204604B070BD30B585B01D
:10501000054601AC2046FFF77DFB284694E80E00CC
:10502000FFF7ACFF05B030BD30B585B00446014692
:1050300001AD28461EF0B2F9204695E80E00FFF7B4
:105040009DFF05B030BD10B5044690B1C3684068FF
:10505000984704F15000FDF7CFFC04F16000FDF724
:10506000CBFC206CFDF766FA2046BDE81040FDF74A
:1050700061BA10BDF8B5054630200E461746FDF75B
:105080004AFA072D04460570C66001D0012D0FD1E4
:10509000B368C3F30F13A38207F0CAFD0423206192
:1050A00020202783E384FDF71DFAE0622046F8BD47
:1050B000014B5B5DEFE700BFC4C2036010B504465F
:1050C000C06AFDF737FA2046BDE81040FDF732BA56
:1050D00030B500220446058D954201D8002030BD30
:1050E000E36A03EBC20043688B42F8D00132F3E776
:1050F00070B504460D461646FFF7EAFFC0B9E38CCB
:10510000228D9A4208D30633E06AD900FDF705FAEA
:10511000E38CE0620633E384238DE26A591C02EBE0
:10512000C300218502F8336000234560437043804B
:1051300070BD034618465B68002BFBD1FFF7C8BF64
:10514000F8B544680E462CB9F8BD042BFCD10523F4
:105150000370F9E7254628466D68002DF4D077687E
:105160003946FFF7B5FF0028F5D00378043B022B42
:10517000EAD806253570002239462046FFF7B8FFE9
:105180000378002BE1D105706468F4E7036A1B8B98
:10519000012B1EBFC3685B18C3607047836A10B5DC
:1051A00004469B6F406A9847238B226A0133918C97
:1051B0009BB29942238338BF938410BD038B013B7C
:1051C00010B503830446836A406AD3F88030984759
:1051D00020460121BDE81040FFF7D8BFF7B51E46B5
:1051E00059B111F0030511D14F68FCB294420DD1B1
:1051F0003F0A01F10804BD4201DB03B0F0BD54F8E1
:10520000041B01350190B0470198F4E7334603B021
:10521000BDE8F04018472DE9F04F04460D4698468A
:105220002DED028B08EE102A83B01BB1CB8A43F020
:105230000803CB8218EE103AEB83236ADA8A42F035
:105240003002DA821B78002B4CD1A36A18EE102AA8
:105250002946606AD3F8B0604346B44603B0BDEC5B
:10526000028BBDE8F04F6047DB6A03EBC60B13F817
:105270003630053B012B1DD84FF0000917E0EB6AD3
:1052800003EBC90213F83930062B0ED1DBF80410FA
:105290005368994209D1A36A0AF1010ABBF80220B6
:1052A0001B69606A1F460023B84709F101092B8D6D
:1052B0004B45E4DC0136236A1A8DB242D4DCBAF1E4
:1052C000000FC2D0A36A5246CDF800802946D3F819
:1052D000B46018EE103A606AB04703B0BDEC028BC0
:1052E000BDE8F08F0026B246E5E70000F8B50E46AF
:1052F00011461A46002304468578076983700361C6
:105300000E4BFFF76BFF6368BBB9618A51B1228A0C
:1053100042B9A36A606AD3F89C309847A36A606A6E
:105320001B6C9847238A3146628A2046FFF773FF39
:10533000003D276118BF0125A570F8BDC95C00605C
:10534000024B9D228968FFF749BF00BFCD790060FD
:10535000024B6B228968FFF741BF00BFA97600604E
:10536000836A002110B50446D3F88430406A984718
:10537000A36A606A10211B6B9847A36A606A0121C7
:10538000D3F8C830984720460321BDE81040FFF706
:10539000FDBE38B5836A04460022406A5B6C9847BC
:1053A000A36A606AD3F8BC5000231A461946A8477E
:1053B0002046BDE83840FFF7D3BF836A00228968E2
:1053C0001B6D0909406A1847836A8968DB6B406A6C
:1053D000184710B50446084611461A46FFF74AFE1C
:1053E000236A436000238360E3690BB9E06110BD69
:1053F0001A469B68002BFBD19060F8E770B54378A4
:1054000005460C46012B06D1036A0A4602211B8B76
:10541000FFF7DFFF2061A268284621694C23BDE821
:105420007040FFF763BF70B51346427805460C46DF
:10543000012A04D10A460721FFF7CBFFA061A66924
:1054400028464623E2683146FFF750FFB08A70BD18
:105450002DE9F04F85B005460C4600AF11B901218A
:10546000116015E011F003081BD10B79682B07D1EF
:10547000CB681B0913608C68002CF0D04FF001083A
:1054800004F00F03022B0FD12109B8F1000FE7D070
:10549000AB6A0022686ADB6A98471437BD46BDE8EC
:1054A000F08F4FF00008EBE7B8F1000F02D1A368CE
:1054B0001B091360666804F1080A360AD14606F132
:1054C000FF3B0AEB860659F8040B0009FDF76AF961
:1054D000B1458344F7D10BF1070323F00703ADEB8C
:1054E000030D6B4699465AF8040B07F10C013B601B
:1054F0000009FDF76EF9FA68014648467A6029F01E
:10550000B3FF7A68B2453B68914418D159461846B2
:10551000FDF78CF8AB6A01460022DB6A686A98479F
:10552000B8F1000FB9D00C34A642B6D054F8041B21
:105530000022AB6A0909686A1B6D9847F4E74FF0CF
:105540002E0209F8012BCEE731B101F00303826886
:10555000134304BF0B6883607047000038B543688D
:105560000D46044611464BB905480AF00DFB294685
:1055700060602046BDE83840FFF7E6BF38BD00BF99
:1055800058D70360014AFFF7E9BF00BFCBC20360F1
:105590000B79092B4FF6FF7370B508BF858A044657
:1055A00018BFC58A9D4202D1064AFFF7D7FF218B5B
:1055B000628BA36A8A1A606A29465B6FBDE87040F5
:1055C000184700BFD8C2036070B5144605460E46A2
:1055D000127883B132B1032A04D0104ABDE870407A
:1055E000FFF7BCBF032661682670286AFFF7A1FD9C
:1055F00000B1067070BD62B9012321462370006AB4
:10560000FFF79EFD2378012BF4D1054A3146284649
:10561000E4E7062AEED0034AE0E700BFF1C20360E8
:10562000FEC203600BC3036013B50446B9B101F0B9
:105630000F03022B0FD10A091046019207F0C0FF99
:105640000028019A05DA074907480AF033FB606031
:10565000002002B010BD054AFFF780FFF8E70846BA
:10566000F7E700BF12C303600CD8036017C30360E1
:1056700010B404460B46006A6278012A03D15DF833
:10568000044BFFF735BDA16A0246606A10315DF830
:10569000044B02F05FBE000070B505460C460029C1
:1056A0002DD0CA0706D5836A49105B6B686ABDE8CE
:1056B000704018478B0716D004F00F040909022C1C
:1056C0000AD0062C0CD0062919D0836AC9B2406AC8
:1056D0001B6BBDE870401847BDE87040FFF7C8BFBE
:1056E000836A9B6BE2E7836A0968DB68406A9847D4
:1056F0002279034B2146284653F82230D7E770BD64
:10570000A4C403602DE9F74F05460C4616461F4614
:10571000204631F0F1FA40B16EB9AB6A39469B6E62
:10572000686A03B0BDE8F04F1847204631F074FBBB
:1057300020B1002EF1D103B0BDE8F08F002C48D08D
:10574000A30746D163684FEA132BDBB21E2B18D197
:10575000DEB1083404EB8B0BA345ECD03B4632465C
:1057600054F8041B2846FFF7CDFFF5E743465AF8E7
:10577000041B2846019209F10109FFF7C3FF019AB2
:1057800011E01F2B1FD1002EE3D0D5F80C8004F1BF
:10579000080A4FF0000986F0010208F10103EB60EE
:1057A0000BF1FF330093009B4B45DFDC0BF1010154
:1057B0003B463246284654F82110FFF7A3FFAB6A58
:1057C00041469B6AACE7202B03D1A46886F0010612
:1057D0009EE721462846FFF75FFFAB6A3A4631460F
:1057E000DB6E686A03B0BDE8F04F1847026A38B54F
:1057F000127804460B46072A06D0022A04D0154A1E
:10580000BDE83840FFF7AABE9D6885B9A36A10219C
:10581000606A1B6B9847A36A0021606AD3F8C8309E
:10582000984720460121BDE83840FFF7AFBCAB07E1
:105830000BD12B79AF2B08D12046A968FFF72CFF9D
:105840002046BDE83840FFF78BBD29462046FFF7CC
:1058500023FFE0E71EC3036070B543780446154696
:10586000CE68012B06D1036A0A4629461B8BFFF737
:10587000B0FD70610023716920461A46FFF7CBFC2A
:10588000F1682046FFF708FF062D05D1A36A002125
:10589000606AD3F884309847A36A0121606AD3F81C
:1058A000B8500023AC461A46BDE87040604738B592
:1058B00005460C46C968FFF7EFFEA1682846BDE81B
:1058C0003840FFF7E9BE0B79342B70B504460D461E
:1058D00010D18968FFF7E0FEED68AD6885B9A36A6D
:1058E0001021606A1B6B9847A36A04220221D3F837
:1058F0009C301AE0836A1021406A1B6B9847ECE7E2
:10590000AB071FD12B799A2B13D1A36A1021606AA0
:105910001B6B9847A9680029E6D02046FFF7BCFE1C
:10592000A36A04220321D3F89C30606ABDE870406A
:1059300018479B2B06D1A9682046FFF7ADFEEB6800
:105940009968E8E729462046FFF7A6FECCE710B5A0
:1059500004468968FFF7A0FE0021A36A606ADB6C39
:10596000BDE81040184700002DE9F7438D68044654
:1059700016465DB9002A75D0836A02222946D3F8FB
:105980009C30606A03B0BDE8F043184715F0030788
:1059900040F08A802B79372B13D132B1836A0222EF
:1059A0000121406AD3F89C30984720462946FFF7EA
:1059B00073FEA36A606AD3F8A03003B0BDE8F04379
:1059C00018479F2B70D1EB681A79A12A5AD1A221CE
:1059D00001AA03F1080031F06FFAA968804621B3EB
:1059E0008B0722D10B79372B1FD136B1A36A411C0B
:1059F0000222606AD3F89C309847A9682046FFF7D6
:105A00004BFEA36A4FF00109606AD3F8A0309847B3
:105A1000474510D1B9F1000F24D1A36A0322791CA4
:105A2000606AD3F89C3098471CE020464FF000098C
:105A3000FFF732FEECE7019B53F82710A9B18E0760
:105A400013D10E79A6F13700464246412046FFF7B2
:105A500023FEB9F1000F11D04EB9184A294620464D
:105A6000FFF77CFD03B0BDE8F0830026EEE7A36AF4
:105A7000606AD3F8A03098470137C9E7002EFBD001
:105A80000F4AEBE7AB685BB19A0709D11B79372B5B
:105A900006D10422294603B0BDE8F043FFF7DCBE7F
:105AA000052229462046F6E729462046FFF7F4FD61
:105AB000A36A03220121D3F89C3062E729C3036063
:105AC00037C303600122FFF74FBF70B50D46C968A9
:105AD0000446FFF7E1FDA968A36AC1F30711606AF4
:105AE000D3F89430342916BF40390221C9B2BDE839
:105AF00070401847F8B54F680C46002689683F0A81
:105B00000C340546FFF7C8FD02360834B74200DC06
:105B1000F8BD54F8041C2846FFF7BEFD54F8081CD5
:105B2000AB6A0909686AD3F898302539C9B2984731
:105B3000EAE72DE9F0414E680C4601278968A6F195
:105B40000D080C34360A05465FFA88F8FFF7A4FD05
:105B5000B74201DBBDE8F08154F8041B2846FFF78B
:105B60009BFDAB6A4146686AD3F898300137984785
:105B7000EEE72DE9F0414E680D4689680446360A85
:105B80000127FFF789FD032E89BFD4F80C804FF061
:105B9000000808F10103E3607B1C9E4222DC032E17
:105BA00055DDE568606A6B1C2946E360A36A9B6E5D
:105BB0009847A36A4146606A9B6A9847A36A012195
:105BC000606A9B689847A36A606A1B6E9847A36ADD
:105BD000606ADB6D9847A36A2946606A9B6ABDE8E4
:105BE000F0411847023729692046FFF755FDB742B3
:105BF00007DAA36A606A5B6D9847A36A606A5B6EA6
:105C00009847E968A36A01F00F02606AD3F89830F8
:105C10000A2A11D1C1F30711262916BF35390621E9
:105C2000C9B29847B74205DAA36A42460021606AC2
:105C30001B6F98470835AFE70A79852A01D13221D1
:105C4000EFE78A680AB90721EBE73321E9E7BDE806
:105C5000F08110B504468968FFF71EFD0321A36A91
:105C6000606AD3F89430BDE8104018472DE9F0473A
:105C70004E680446D0F80C8001F108055FFA86F9F9
:105C80000027360AA9F11E03D3F1000949EB0309E5
:105C900008F10103C360B74206DBA36A4146606AAC
:105CA0009B6ABDE8F0471847013755F8041B2046AA
:105CB000FFF7F2FCB742F0DAA36A42464946606A4F
:105CC0001B6F9847E7E7000001F00F03022B70B548
:105CD00004460FD00B79492B01D04F2B02D1012361
:105CE000A37070BD4A2BFCD0502BFAD0482B0DD19D
:105CF0000D696DB9A378002BF3D1638A002BF0D026
:105D000020461D4ABDE87040FFF728BCCD68F0E78B
:105D1000A37843B3238A8E6801339BB2012B23827D
:105D20000ED1618AD4E90903D1B1D3F89C300022A5
:105D30009847A36A02220021606AD3F89C309847F2
:105D400029462046FFF7A8FCA36A606A31099B6BCD
:105D50009847A36A606AD3F8A030BDE8704018473E
:105D60001B6C9847E5E7638A294620460133638226
:105D7000BDE87040FFF790BC44C303602DE9F041DB
:105D8000C5680446D1F80C800E46AB1C0022D8F83A
:105D900008106F1CC3602B46FFF7B4FCB1682046A7
:105DA000FFF77AFCA36A3946606A9B6E9847A36A3C
:105DB0002946606A9B6A9847A36A606A4FF0FF3180
:105DC0009B689847D8F80C102046FFF765FCA36A3B
:105DD0003946606A9B6ABDE8F04118472DE9F047F3
:105DE000C6680446D0F814A00D46B31C06F101089D
:105DF000B0F81A90C360038B8682A0F816804383A4
:105E0000886830F079FFF8B9E768A8687B1CE36020
:105E100031F002F820B9A36A4146606A9B6E984748
:105E2000A36A3946606A9B6A9847E9682046FFF78B
:105E300033FCA36A4146606A9B6A98473B4601224D
:105E4000A9682046FFF75EFC29692046C4F814A023
:105E5000A4F81A90FFF720FCA36A3146606A9B6A97
:105E6000BDE8F04718472DE9F347C66804460D46DC
:105E7000731CC360886830F03FFF0246E8B9E768EA
:105E80002046A9687B1CE3603B46FFF73BFC2046AD
:105E9000E968FFF701FCA86830F0BEFFD8B92B69AC
:105EA0000BB96B6923B1A36A3146606A9B6E984750
:105EB000A36A3946606A9B6A984701AA712105F175
:105EC0001000002730F0F8FF81464F450BD169697B
:105ED0002046FFF7E1FBA36A3146606A9B6A984758
:105EE00002B0BDE8F087019B53F82780D8F808007E
:105EF00030F002FF0246F8B9D4F80CA02046D8F8DA
:105F000008100AF10103E3605346FFF7FBFB20464C
:105F1000D8F80C10FFF7C0FBD8F8080030F07CFF71
:105F20000028D8D1A36A3146606A9B6E9847A36A5D
:105F30005146606A9B6A98470137C6E770B58D681D
:105F400004463DB9836A2946D3F8C430606ABDE887
:105F500070401847AB070ED12B795E2B0BD1A96887
:105F6000FFF79AFBE9682046FFF796FBA36A022138
:105F7000D3F8C430EAE729462046FFF78DFBA36A31
:105F80000121D3F8C430E1E710B504468968FFF772
:105F900083FBA36A606ADB6DBDE8104018472DE9FA
:105FA000F0414E6801F108040546360A04EB860705
:105FB000BC4208D1AB6A3146686A0022D3F89C30F3
:105FC000BDE8F041184754F8041B2846FFF764FB6E
:105FD000EEE78968034610B441B9826A406AD2F894
:105FE0009C400A4623465DF8044B18474A68120A4B
:105FF000022A0BD1CA684AB1940707D11279AC2A98
:1060000004D106225DF8044BFFF726BC18465DF864
:10601000044BFFF7C4BF4B682DE9F04105460E461F
:106020001F0A01F108080024BC4201DBBDE8F08131
:1060300058F8041B2846FFF72FFB6B683BB102346E
:10604000284656F82410BDE8F041FFF77DBA013428
:10605000EAE710B50446FFF7DEFF2221A36A606A73
:10606000D3F89830BDE81040184770B58D680446E5
:1060700045B9836A01222946D3F89C30606ABDE89D
:1060800070401847A9071ED16B68DAB2922A1AD15C
:106090001B0A022B0CD1EB6853B19A0708D11B796C
:1060A000AC2B05D129460322BDE87040FFF7D4BBD5
:1060B00029462046FFF7AFFF6968A36A0122090A53
:1060C000D3F89C30DAE729462046FFF7E5FAA36AC1
:1060D0000122D3F89C301146D0E70000184B2DE97F
:1060E000F041D3F8387304460D463FBBC668012221
:1060F0008968731CC3603346FFF704FBA36A1F2142
:1061000001225B69606A9847E96851B12046FFF750
:10611000C3FAA36A3A460121D3F8B8503B46606AF5
:10612000A847A36A0121606AD3F8C4309847A36ADC
:106130003146606A9B6ABDE8F0411847BDE8F081CE
:1061400000080020026A2DE9F04112780446072A6F
:1061500004D01B4ABDE8F041FFF700BA8D685DB975
:10616000836A1021406A1B6B9847A36A606AD3F860
:10617000C030BDE8F041184715F003021DD12B795E
:106180001B2B1AD1C668EF68731CB968C36033460D
:10619000FFF7B8FAA9682046FFF77EFAA36A606A9B
:1061A000D3F8C0309847A36A3146606A9B6A984723
:1061B000F9682046FFF770FAD7E72946F9E700BFEC
:1061C00062C3036010B4026A044640780B4601289B
:1061D00004D110465DF8044B02F0ADB8A16A606AC4
:1061E00018315DF8044B02F0B5B800008B072DE9BB
:1061F000F14F04460D46164611D001F00F03022B55
:1062000016D1D7074FEA111104D401B0BDE8F04F01
:10621000FFF7D8BF01B0BDE8F04FFFF729BA4968D2
:10622000CBB22D2B7BD00BD8062B0DD02C2B12D024
:106230004E4A2946204601B0BDE8F04FFFF78EB91F
:106240002E2B7FD09D2BF3D1002EF1D105F108022A
:10625000090A20467BE0022A02D0A968FFF71CFA4F
:10626000EF68002FE4D017F00309E1D17B68B8464E
:10627000DAB28E2A0DD1022E4FEA132805D007F18B
:10628000080A08F1FF3BD94511DB08F1010857F86E
:10629000288098F80430312B24D1022E0FD1A36A24
:1062A000606A5B6E9847A36ADB6C012115E05AF8BF
:1062B000041B204609F10109FFF7EEF9E3E7D8F8DE
:1062C00008102046FFF7E8F9012EA36AECD19B6D78
:1062D000606A9847A36A0021DB6C606A01B0BDE880
:1062E000F04F1847322BA3D1012ED4E909030CD16A
:1062F0005B6D9847A36AD8F8081000221B6D090946
:10630000606A01B0BDE8F04F1847022E01D11B6E44
:106310009847A36A0122D8F808101B6DEFE7AA6816
:10632000002A85D0002E83D15168090A022907D19D
:10633000D3682BB1980703D11B79AC2B3FF478AF0E
:10634000083286E7002A7FF473AFA96821B901B04B
:10635000BDE8F04F00F074B88E0703D10B790A4600
:10636000922BE1D005F10802012172E76EC30360B0
:106370002DE9F047C7681E4604460D46BB1C39464A
:10638000904607F10109C360836A406A9B6A984797
:10639000A36A4946606AD3F888309847A968002202
:1063A0002046FFF723FF2D69002D2DD141462046C1
:1063B000FFF772F9236AA06A197806291DD1D0F86F
:1063C000C8302946606A984720460121FEF7DEFE64
:1063D000A36A606ADB6D9847A36A3946606A9B6E60
:1063E0009847A36A606A49469B6A9847A36A606AAD
:1063F000D3F88C30BDE8F0471847B200D0F8A4506D
:10640000606A0532A847E7E72B79AD2B07D1A96869
:106410003B4600222046FFF775F9ED68C4E7E968BE
:106420002046FFF739F9A36A606A0121D3F8843066
:106430009847731C424629462046FFF799FFCBE751
:106440002DE9F84304460D46904601F1FF39002638
:106450004FF0FF37B9F1FF3F0CD17B1C05D1A36A88
:106460002946606AD3F8A83098470026AE421DD16D
:10647000BDE8F88358F8261071B18A070CD10B7962
:10648000222B09D101370BD1A36A37464A46314640
:10649000D3F8AC30606A9847013609F1FF39D9E783
:1064A0002046084ABDE8F843FFF758B858F82610C8
:1064B000B7424FF00002204608BF89680136FFF757
:1064C00095FED3E779C303602DE9F7430446904670
:1064D00099460F4629B9194603B0BDE8F043FFF7C6
:1064E000DBB8C668731CC360156845B315F00302BA
:1064F00025D12B797B2B22D1A9680192FFF7CCF80B
:10650000019A31462046FEF749FE019AE968204685
:10651000FFF76CFE4B4608F10402791E2046FFF798
:10652000D3FFA36A3146606ADB6F98470321204698
:10653000FEF72CFE03B0BDE8F043FEF73FBE294650
:106540002046FFF7A9F8204600223146FEF726FE36
:10655000A36A606ADB6D9847DCE737B50C460546F1
:1065600001AA7A2104F1080030F0A6FCE368014694
:10657000019A2846FFF7A8FF03B030BD8B6803F0EF
:106580000F03022B2DE9F04F04460E462DED028B32
:1065900087B040F00581CB68002B00F0018198079F
:1065A00040F0FE801A792C2A40F0FA809A6802F0B6
:1065B0000F01022940F0F48012097C2A40F0F0809B
:1065C000DB681A79302A40F0EB809B6805AAA42189
:1065D00004A8049330F070FC431E022B00F2E0800C
:1065E000059901280A6800F0CD800228D1F804A09E
:1065F00000F027818D68E90740F1D2806B0800F038
:10660000CF8032B1930704D11179A639022940F223
:10661000C780BAF1000F08D01AF0030F05D19AF81D
:106620000410A639022940F2BB80B3681AF0010BAE
:10663000776908EE103A3369218B08EE903A636966
:10664000E6680293638B06F10208618306F1040198
:10665000019306F1010306F10309A6820393E38285
:10666000E16005D1514620460392FFF715F8039AE1
:1066700011462046FFF710F8A26A4946606A926EFA
:106680009047A26A4146606A926A9047A26A606A2D
:10669000526D9047002218EE101A2046FFF7A6FD13
:1066A00018EE901A2046FEF7F7FFA26A711C606A86
:1066B000926A904729462046FEF7EEFFA26A0E2115
:1066C000606AD2F898209047A26A4946606A926A46
:1066D0009047A26ABBF1000F58D1936D606A98474A
:1066E000A36A606A1B6E9847002DA36A606AACBFFC
:1066F00000210121D3F898309847A36A424601212E
:10670000DB6E606A9847029B6361019B6383002F85
:1067100044D0A36A606ADB6D9847BBF1000F03D1D8
:10672000A36A606ADB6D984739462046FEF7B4FFDE
:10673000E568606A6B1C2946E360A36A9B6E984714
:106740008BF00101A36A0131606A9B689847A36AD4
:106750003146606A9B6A9847A36A606ADB6D984716
:10676000BBF1000F03D1A36A606ADB6D984727B1C4
:10677000A36A2946606A9B6A984707B0BDEC028B02
:10678000BDE8F08F92460325024642E7606A526DEB
:10679000904751462046FEF77FFFA5E73D46D6E7E6
:1067A000E5682046238BB4F81A906F1C63836FEA68
:1067B0004543D4F814A005F102086FEA5343F16889
:1067C000E782A382EB1CE360FEF766FFA36A606AC0
:1067D0000121D3F884309847A36A3946606A9B6ADE
:1067E0009847A36A4146606AD3F8883098470022E8
:1067F000B1682046FFF7FAFC31692046FEF74CFFEE
:10680000A36A3946606A9B6E9847A36A4146606AEC
:106810009B6A9847A36A606AD3F88C30984771697D
:106820002046C4F814A0A4F81A90FEF735FFA36A16
:106830002946606A9B6A07B0BDEC028BBDE8F04F49
:1068400018470325DDE62DE9F74F044690460F462D
:1068500029B9194603B0BDE8F04FFEF71DBFC66861
:10686000321D06F1010A06F1020B06F10309C260AE
:10687000D8F80050002D00F0F58015F0030240F02C
:10688000F18029797B2940F0ED80A968CDE90032BB
:10689000FEF702FFA16A606A496D88474FF44071B4
:1068A0002046FEF776FD019AE9682046FFF79EFC38
:1068B000009B3146204602220093FEF76FFCA26A3D
:1068C0000321606A9268904708F10402009B791ED8
:1068D0002046FFF7B8FFA36A606A6FF002019B6869
:1068E0009847A36A1021606A1B6B9847A36A606A85
:1068F0001B6E9847A36A5146606A9B6E9847A36ACD
:106900003146606A9B6A9847A36A606A5B6D9847E4
:10691000A36A0122606A5B6921219847A36A606AC1
:106920000821D3F898309847A36A5A460021606A34
:10693000DB6E9847A36A606A5B6D9847A36A606ADA
:106940005B6E9847A36A606A1B6E9847A36A002231
:1069500040F20131606A5B6C9847A36A606A5B6EC3
:106960009847A36A606A5B6E9847A36A606A5B6D2A
:106970009847A36A00220A21606A1B6D9847A36AA0
:10698000606A1B6E9847A36A606A10211B6B984768
:10699000A36A0321606AD3F8BC5000231A46A847B3
:1069A0002046FEF7DDFCA36A4A460021606ADB6EE2
:1069B0009847A36A606ADB6D9847A36A606A1021F2
:1069C0001B6B9847A36A4946606A9B6E9847A36A07
:1069D000606A02219B689847A36A5946606A9B6A6D
:1069E0009847A36A606A5B6E9847A36A606A5B6EA9
:1069F0009847A36A5146606A9B6A9847A36A002237
:106A0000606A5B6C40F201319847A36A1021606AAA
:106A10001B6B9847A36A606A5B6D9847A36A606ABC
:106A20005B6D9847A36A0321606AD3F8BC500023CA
:106A30001A46A8472046FEF793FCA36A606ADB6DFE
:106A40009847A36A606A4FF0FF319B689847A36A32
:106A5000606A49469B6A9847204603B0BDE8F04FFC
:106A6000FEF7ACBB294620460093FEF715FEA26A4E
:106A7000606A526D904720464FF44071FEF789FCE2
:106A8000A26A606AD26D904712E72DE9F041CD68A5
:106A900004460E463DBB0378C3B1036A1D78ADB909
:106AA00040F20D31FEF7E4FDB1682046FEF7F4FD3B
:106AB000A36A2A460121D3F8B8602B46606AB04722
:106AC000A36A606ADB6DBDE8F0411847B1688807CA
:106AD00000F0BC8001F00F03022B40F0BE80204686
:106AE000FEF7DAFDECE7A90740F0BB806B68DAB28D
:106AF0005B2A14D1ED68002D40F0B180006A037864
:106B0000072B40F0AA80B16801F00F03022B40F080
:106B1000A4800422BDE8F041D140FEF7E9BA562A2C
:106B200013D10122B168FFF761FBE9682046FEF747
:106B3000B3FDA968A36A0909606AD3F898303F39A0
:106B4000C9B298470222B1687BE0572A40F087809B
:106B50001B0A5F1E013355F82310FEF79DFD002F21
:106B600003DDA36A606A5B6D9847B168083500264B
:106B700000222046FFF73AFBBE426EDA0136BE42E3
:106B800003DAA36A606A5B6D9847002255F8041B1C
:106B90002046FFF72BFBEFE76B68DAB2062A60D1DD
:106BA000B768002F5DD0BA075BD17A68D1B20629E9
:106BB00057D11B0A4FEA1228B3EB122F51D1A8F17B
:106BC0000203012B4DD8BB6823B1980702D11B7972
:106BD000222B46D0FB6823B1990702D11B79222BC7
:106BE0003FD0B8F1020F06D03B6923B19A0702D11A
:106BF0001B79222B35D0A9682046FEF74DFDE968A8
:106C00002046FEF749FDB8F1030F07D12046296958
:106C1000FEF742FDA36A606A5B6E9847A36A606AEA
:106C20001B6E98470022B9682046FFF7DFFA002262
:106C3000F9682046FFF7DAFAB8F1030F0DD1002208
:106C400039692046BDE8F041FFF7D0BA00293FF48A
:106C500046AF0B793A2B7FF442AFBDE8F081AB072A
:106C60009AD029462046FEF717FD00226BE7000068
:106C70000023032A2DE9F04104460D4616464270D2
:106C80000162C36080F8342002D1C08E50BBA06383
:106C90004FF00008A36A3146606A1B682A46A4F8D0
:106CA0003680984706212046FEF770FA6778EE682E
:106CB000012F04BFA5F82280A5F82480B6B1B20741
:106CC00014D133793F2B11D1B168FEF7E5FCA36AEB
:106CD000606AD3F8C0309847A36A606A5B68BDE811
:106CE000F04118478000FBF716FCD0E72B784BB932
:106CF00031462046FEF7D0FCA36A1B6B1021606A68
:106D00009847E4E7072B16D1012F12D10023462222
:106D10002046A370574BF168FEF760FA2B8B032BCC
:106D200007D131692046FEF77FFCEB8A43EA8010E9
:106D3000E8827169DDE7022B1BD1A36A3168DB6849
:106D4000606A98476378012B07D100234C222046C4
:106D5000A370494BB168FEF741FAF1682046FEF78F
:106D60009BFCEB8ADB07B2D5A36A606ADB6D9847B0
:106D7000C2E7033B032B4FD8012FD6F80C8005D177
:106D800004223946206AFEF7B3F96F83A36A31689B
:106D9000DB68606A98472B78032B24D1A36A012211
:106DA000D3F89C300021606A98472B78062B28D1B5
:106DB000A36A606A1B6C984701212046FEF758FCC5
:106DC000A36A606A1B6C9847A36A606A1B6C984749
:106DD0000023B26841462046FFF7CAFA2B78062BFB
:106DE0007FF475AF88E7042B04D1A36A0222D3F89D
:106DF0009C30D7E7052BD8D1A36A0322D3F89C3067
:106E0000D0E720460121FEF733FCA36A0121606A26
:106E1000D3F884309847DBE7012F04D104220A21FC
:106E20002846FEF765F917212046FEF721FC1621BA
:106E30002046FFF7C7F9B168A36A0909606A9B6B2E
:106E400098471A212046FFF7BDF931692046FEF721
:106E500023FC0A212846FEF73BF90378042BA36A9A
:106E60003FF44BAF1D690A2142880023606AA8479E
:106E70002DE700BF157C00601D7C0060036A10B523
:106E800004461A8BFEF7CFFA01462046BDE81040B3
:106E9000FFF798B92DE9F04F8D6885B004462B793E
:106EA000032B0AD12946FFF7E9FFAA69D38A43F0E9
:106EB0000103D38205B0BDE8F08F026AD28AD207FF
:106EC00006D4624A294605B0BDE8F04FFEF746BB3E
:106ED000162B40F0AD80C668E968331D06F1010B42
:106EE00006F1020906F1030AC360FEF7D5FBA36AA7
:106EF000606A00225B6C40F202319847A36A606AC4
:106F0000D3F8BC7000231A461946B8476369E7688E
:106F10000193638B07F10108606A0093BB1C414633
:106F2000A782E360238BA4F816806383A36A9B6A1D
:106F30009847012259462046FEF730F9A36A606A55
:106F40005B6D9847204640F20331FEF722FAA968AC
:106F500020460022FFF74AF9A36A00224946606AE8
:106F6000D3F890309847A36A5946606A9B6A98475D
:106F7000A36A606AD3F8CC309847A36A606A5B6DF5
:106F80009847A36A0122606A5B6940F2BD21984775
:106F9000A36A606A0821D3F898309847A36A5246DA
:106FA0000021606ADB6E9847A36A606ADB6D9847D0
:106FB000A36A01223146606AD3F890309847A36AE9
:106FC0005146606A9B6A9847A36A0121606A9B6880
:106FD00098472046FEF7F2F8A36A606AD3F8D030EB
:106FE0009847A36A4946606A9B6A98472969204680
:106FF000FEF752FBA36A4146606A9B6E9847019B6D
:107000003146606A6361009B6383A36A9B6A984709
:1070100069692046FEF740FBA36A606A39469B6AAD
:107020009847A36A606ADB6D05B0BDE8F04F18476A
:1070300003AA7A2105F108002FF03EFFEB68014614
:10704000039A2046FFF7FFFB34E700BF80C30360CD
:1070500001F00F03022B70B504460D46164602D010
:107060001E4AFEF77BFA31462046FEF715FBA36A5F
:10707000606A2E095B6D98476378012B0FD1226AF5
:107080001378033B032B0AD85068314601F053F9BB
:107090000278032A09D13146206AFEF729F83146E1
:1070A0002046BDE87040FFF78DB800223146206AC7
:1070B000FEF71EF8236A5B685B68002B0CBF012398
:1070C000002304D00278012A04BF00220270024685
:1070D00029462046FEF778FAE1E700BF6EC3036059
:1070E0002DE9F04F002787B04FF0010B0446B94659
:1070F0003E46B84603A81D46CDE9022105AAA421B3
:107100002FF0DAFE0190019B9F4211D126B1A36AB4
:107110004946606A5B6B9847029AD4E90903002AE2
:1071200073D0D3F8BC40334642462946A04713E00B
:10713000059B53F827A0BAF1000F5BD01AF0030F9C
:1071400058D19AF80420A62A19D1B00707D5304A99
:1071500051462046FEF702FA07B0BDE8F08F1D2F1A
:1071600001D92C4AF4E70BFA07F246F00106DAF8E7
:10717000081049EA02092046FEF78EFA20E0A72A05
:107180000ED1A26A46F00206606A126C9047DAF8E5
:10719000081008F101082046FEF77EFA0137B2E731
:1071A000A82A27D1DAF80C2072B191070CD11179F5
:1071B000AA2907D192682046DAF80810FFF748FF9D
:1071C0000135EBE7AC290FD0DAF8081001F00F0217
:1071D000022A01D0104ABBE7A26A0909606A926BD1
:1071E0009047DAF80C10D4E7062251462046FEF705
:1071F00033FBE5E7B30701D5084AA9E7B8F1000F6B
:1072000001D0074AA4E75146B5E7D3F8B8408AE76A
:1072100097C303609EC30360AAC30360B7C3036040
:10722000BEC3036070B50D4641780446134601297C
:1072300003D12A46FEF7CDF86861A36A606A9B6CA9
:1072400098476E690023204631461A46FDF7E3FF52
:10725000A36AB18A9B6B606A9847E96829B18B077A
:1072600003D10B79A32B08BF002120460223002263
:10727000FFF736FFB08A70BD002389681A46FFF712
:107280002FBF00002DE9F7430C4689680546FEF73D
:1072900003FAE668002E58D07768296AFBB20978AD
:1072A0008E2BA36819BF04F10C0601273F0A08368C
:1072B000072903F00F024DD1022A49D11A099A2A4F
:1072C0004AD132681179302946D19268002A43D1D7
:1072D0000A212846FEF7CCF92A6AD36A128D3AB9F8
:1072E000414A2846316803B0BDE8F043FEF736B99D
:1072F0005978C9070FD559682846FEF7B9F9022F02
:10730000AB6A0BD8D3F8B84000230221686A1A464A
:10731000A047012417E0013A0833E0E772681179C9
:107320003229EFD1B46821793029EBD1916801225B
:107330005B6C0909686A9847A1680324002301224D
:107340002846FFF7CDFEA74226D803B0BDE8F0835C
:107350000024F8E7022AFBD11B09B3F5247FF7D1FB
:1073600033681A79302AF3D19C68002CEBD014F0E2
:107370000302EDD123792F2BEAD1AB6A1146686A5B
:10738000D3F8B84013460192A04733682846019AC3
:107390009968FEF7E9FABCE704F10108A30056F882
:1073A0002410B8451AD20A79322A17D13344D3F8B7
:1073B000049099F80430302B10D189680022AB6A10
:1073C0000909686A5B6C984700230122D9F8081004
:1073D0002846FFF785FE08F10104B4E72846A046D9
:1073E000FEF75AF9F7E700BFC5C30360026A0B4610
:1073F00010B512780446072A06D0022A04D0074A9C
:10740000BDE81040FEF7AAB820461946FFF73AFF3C
:107410002046BDE81040FDF7A3BF00BFD8C30360FE
:10742000D1E90212FFF714BE036A10B504461A8BA5
:10743000FFF7F8FE01462046BDE81040FEF7C2BE49
:107440002DE9F04F85B004460026DFF820A1019118
:1074500002AA019B4221B14603F108002FF02CFD46
:10746000236A83461D8B5E450AD1019BD9680B793F
:10747000032B51D12A462046FDF7D5FF054659E09A
:10748000029B03AA6C2153F8263003F108000093F5
:107490002FF012FD039B074619680A09732A0DD0C5
:1074A0004FF001082046FEF7F7F8B84528D3009BB7
:1074B000D96859B12046FEF7EFF807E0022807D057
:1074C00052462046FEF74AF809F101090136CAE79B
:1074D00059680B09412B0DD040F2174293420BD053
:1074E00040F2C742934209D040F22A329342E7D198
:1074F0000425E9E70125E7E70546E5E70325E3E796
:10750000039B0022606A53F8281008F10108A36A5F
:1075100009091B6D9847C8E7442B17D18E682A4686
:1075200020463146FDF77FFFB2690546D38A43F016
:107530000103D3820026ABEB0909B1450BD82946DC
:107540002046FEF73FFE05B0BDE8F08F2A462046F4
:10755000FFF768FE92E7A36A0121606A0136D3F85B
:10756000B87000231A46B847E7E700BFE3C30360DB
:10757000F0B58D6885B004460E4605F00F030A2B62
:1075800006D0002D30D0AB072ED12B79652B1ED124
:107590000295002503AA652102A82FF08DFC039B0C
:1075A000002140F2DA5203EB8000984215D1F268D4
:1075B00040F22A439A4236D1236A1F78B7B1394A3A
:1075C0003146204605B0BDE8F040FDF7C7BF622B4D
:1075D0000AD1AB680293ED68DCE753F8047B97426D
:1075E0000CBF01310331E0E70021E0E7A36A606AE4
:1075F0005B6B9847A36A0521606A9B6B9847A36AF7
:107600003A460121D3F89C30606A984703AA29467C
:107610002046FDF71DFFA36A02223946DB6A606A35
:10762000984705B0F0BDA36A0027606A5B6B984776
:1076300006F10C0002AA6A212FF03EFC0646B74272
:10764000D4E9090311D1D3F89C3000223146984780
:107650002946002503AA2046FDF7FAFEB542D4E9E3
:1076600009030BD1DB6D9847DBE7029A9B6B52F85D
:1076700027200137916809099847E0E7029ADB6AF9
:1076800052F825700122B968090901919847FB68F1
:107690002BB9019920460135FEF794FDDEE7190963
:1076A000F8E700BFFBC30360836A37B504460D46A5
:1076B0005B6B0021406A9847A36A606A10211B6BCC
:1076C000984701AA29462046FDF7C2FE01992046A7
:1076D000FEF778FD03B030BD10B4026A044640786E
:1076E0000B46012804D110465DF8044B00F023BE80
:1076F000A16A606A20315DF8044B00F02BBE0000E7
:107700002DE9F04F2DED028B83B0C5681E4604466F
:107710000E9B0F460192294608EE103AAB1C01223F
:1077200005F1010AC360FDF739FD394620460027FF
:10773000FDF7B2FFA36A00225146D3F89030606A89
:107740009847A36A2946606A9B6A9847A36A606A59
:10775000D3F8CC309847D4F80C8008F10103E360EB
:10776000019B9F421BDB2046FDF728FDA36A606A50
:10777000D3F8D0309847A36A5146606A9B6A98470D
:1077800018EE101A2046FDF787FFA36A4146606A8B
:107790009B6A03B0BDEC028BBDE8F04F184733463F
:1077A000D4F80C90043601371A68009209F10102EE
:1077B000E260009AD2F808B0BBF1000F52D1019AF2
:1077C000BA4242D10025A36A606AAB46DB6D984796
:1077D000009B2046D968FDF75FFF25B3A26A102100
:1077E000606A126B9047A26A5946606A926A904733
:1077F000A36A0121606A9B689847A36A1021606AA6
:107800001B6B984729462046FEF7DCFC294620469C
:10781000FFF762FFA36A606A4FF0FF319B689847E9
:107820002046FDF7CBFCA36A01224146606AD3F8EB
:1078300090309847A36A4946606A9B6A9847A36A52
:107840000121606A9B6898478AE720461F4A1968A9
:10785000FDF784FE204603B0BDEC028BBDE8F04F7F
:10786000FDF7ACBC1BF003052DD19BF804205B4653
:10787000762A03D1DD68DBF808B02D09A36A606AB7
:107880005B6D984759462046FDF706FFA36A08211D
:10789000606AD3F898309847A36A4A460021DB6EA5
:1078A000606A9847002D8DD029462046FEF78AFC55
