:0200000460009A
:10000000464346420004015600000000010303007D
:100010000101000001040000400000000000000099
:1000200000000000000000000000000000000000D0
:1000300000000000000000000000000000000000C0
:1000400000000000010406000000000000000000A5
:100050000000200000000000000000000000000080
:100060000000000000000000000000000000000090
:100070000000000000000000000000000000000080
:10008000EB04180A063204260000000000000000FD
:100090000504012400000000000000000000000032
:1000A0006B0418080832042600000000000000005D
:1000B0000604000000000000000000000000000036
:1000C0008104042400000000000000000000000083
:1000D00020041808000000000000000000000000DC
:1000E00001040420000000000000000000000000E7
:1000F0003204180804220000000000000000000084
:1001000090041830002400000000000000000000EF
:100110000204180800200000000000000000000099
:100120003504000000000000000000000000000096
:10013000600400000000000000000000000000005B
:10014000F5060000000000000000000000000000B4
:100150005204180800000000000000000000000029
:10016000000000000000000000000000000000008F
:10017000000000000000000000000000000000007F
:10018000000000000000000000000000000000006F
:10019000000000000000000000000000000000005F
:1001A000000000000000000000000000000000004F
:1001B000000000000000000000000000000000003F
:1001C000000100000010000000000000000000001E
:1001D000008000000000000000000000000000009F
:1001E000000000000000000000000000000000000F
:1001F00000000000000000000000000000000000FF
:10100000D10020430020006000000000A05D0460CB
:1010100020100060001000600000000000000000D0
:1010200000000060B800050000000000FFFFFFFFA7
:10200000000002206D000360A5FE0260A9FE0260D0
:10201000A1FE0260A1FE0260A1FE026000000000BD
:10202000000000000000000000000000ADFE0260A3
:10203000A1FE026000000000D1E80260E5F002604D
:10204000B9FE0260BDFE0260C1FE0260C5FE026014
:10205000C9FE0260CDFE0260D1FE0260D5FE0260C4
:10206000D9FE0260DDFE0260E1FE0260E5FE026074
:10207000E9FE0260EDFE0260F1FE0260F5FE026024
:10208000F9FE0260A1FE0260A1FE0260A1FE0260F4
:10209000FDFE026001FF026005FF026009FF0260B1
:1020A0000DFF026011FF026015FF026019FF026060
:1020B0001DFF026021FF026025FF026029FF026010
:1020C0002DFF026031FF026035FF026039FF0260C0
:1020D0003DFF026041FF0260A1FE0260A1FE0260BE
:1020E000A1FE0260A1FE0260A1FE0260A1FE0260EC
:1020F000A1FE0260A1FE026085DE0260A1FE026018
:10210000A1FE0260A1FE0260A1FE0260A1FE0260CB
:10211000A1FE0260A1FE0260A1FE0260A1FE0260BB
:1021200045FF026049FF02604DFF026051FF0260FF
:1021300055FF0260A1FE0260A1FE0260A1FE0260E6
:10214000A1FE0260A1FE0260A1FE0260A1FE02608B
:10215000A1FE0260A1FE0260A1FE0260A1FE02607B
:10216000A1FE0260A1FE0260A1FE0260A1FE02606B
:10217000A1FE0260A1FE0260A1FE0260A1FE02605B
:1021800029D8026039D8026049D8026059D8026063
:1021900069D8026079D8026089D8026099D8026053
:1021A000A9D80260B9D8026059FF02605DFF0260E1
:1021B000A1FE0260A1FE0260A1FE0260A1FE02601B
:1021C000A1FE0260A1FE0260A1FE0260A1FE02600B
:1021D000A1FE0260D5F10260A1FE0260A1FE0260D4
:1021E000A1FE0260A1FE0260A1FE026061FF02602A
:1021F00065FF0260A1FE026069FF02606DFF026080
:102200003FC6026029C6026071FF026075FF02606E
:10221000A1FE0260A1FE0260A1FE0260A1FE0260BA
:10222000A1FE0260A1FE0260A1FE0260A1FE0260AA
:10223000A1FE0260A1FE0260A1FE0260A1FE02609A
:10224000A1FE0260A1FE0260A1FE0260A1FE02608A
:10225000A1FE0260A1FE0260A1FE0260A1FE02607A
:10226000A1FE0260A1FE0260A1FE0260A1FE02606A
:10227000A1FE0260A1FE0260A1FE0260A1FE02605A
:10228000A1FE0260A1FE0260A1FE0260A1FE02604A
:10229000A1FE0260A1FE0260A1FE0260A1FE02603A
:1022A00079FF02607DFF026081FF0260A1FE026093
:1022B00085FF0260A1FE0260A1FE0260A1FE026035
:1022C000A1FE0260A1FE0260A1FE0260A1FE02600A
:1022D000A1FE0260A1FE0260A1FE0260A1FE0260FA
:1022E000A1FE0260A1FE0260A1FE0260A1FE0260EA
:1022F000A1FE0260A1FE0260A1FE0260A1FE0260DA
:10230000A1FE0260A1FE0260A1FE0260A1FE0260C9
:10231000A1FE0260A1FE0260A1FE0260A1FE0260B9
:10232000A1FE0260A1FE0260A1FE0260A1FE0260A9
:10233000A1FE0260A1FE0260A1FE0260A1FE026099
:10234000A1FE0260A1FE0260A1FE0260A1FE026089
:10235000A1FE0260A1FE0260A1FE0260A1FE026079
:10236000A1FE0260A1FE0260A1FE0260A1FE026069
:10237000A1FE0260A1FE0260A1FE0260A1FE026059
:10238000A1FE0260A1FE0260A1FE0260A1FE026049
:10239000A1FE0260A1FE0260A1FE0260A1FE026039
:1023A000A1FE0260A1FE0260A1FE0260A1FE026029
:1023B000A1FE0260A1FE0260A1FE0260A1FE026019
:1023C000A1FE0260A1FE0260A1FE0260A1FE026009
:1023D000A1FE0260A1FE0260A1FE0260A1FE0260F9
:1023E000A1FE0260A1FE0260A1FE0260A1FE0260E9
:1023F000A1FE0260A1FE0260A1FE0260FFFFFFFFDE
:10240000024B5A69026058610020704700080020A2
:10241000024B5A6912685A61704700BF00080020D9
:10242000024B9A69C0E900219861704700080020BA
:10243000044A93691968916110B15A6818461047A7
:10244000704700BF0008002038B50446044DAB6952
:102450000BB1A34200D338BD0120FFF7E9FFF6E737
:1024600000080020C460056146618761C0F81C80D7
:10247000C0F82090C0F824A0C0F828B0C0F82CD034
:1024800080ED0C8B80ED0E9B80ED10ABC0F808E06A
:10249000FFF7B6BF124D6C6908B50CB92CF023F8E4
:1024A00060602046FFF7D0FF23686B612046C46858
:1024B000056946698769D0F81C80D0F82090D0F86B
:1024C00024A0D0F828B0D0F82CD090ED0C8B90ED53
:1024D0000E9B90ED10ABD0F808E00120704700BFD4
:1024E0000008002010B50021044634F0CDFA18B9D8
:1024F00014B1204634F068FB10BD002134F0C4BA9A
:1025000010B50121044634F0BFFA18B914B12046C1
:1025100034F05AFB10BDFFF7E5BF10B501220C46A1
:1025200034F08EFA18B914B1204634F04DFB10BDCA
:1025300034F086BA34F060BA0346064A506A1A6824
:102540004168C1F31E018A4202D3521A1A607047D1
:102550000068F5E700080020014441F20553884275
:1025600004D398B2012838BF0120704703EB43130E
:1025700010F8012B5340F2E7034B044A5A62002241
:10258000C3F82C23704700BF000800200C2904600A
:102590002DE9F04781460F46002942D0FFF7DCFFC6
:1025A000214B82465C6A0CB9204636E094F907302C
:1025B0000025E668002B06F1FF3616DB013604F134
:1025C0001808B54215D32468EDE706EB05083A462E
:1025D00048464FEA580808F1060354F823102CF037
:1025E0005EFF0028CCBF45464646731B012BECD846
:1025F000E4E7236933F815309A4510D163695B5DD0
:102600009F420CD13A46494658F825002CF017FF56
:1026100028B96068C0F31E002844BDE8F087013582
:10262000CFE70120F9E700BF000800202DE9F843BB
:1026300080460E46FFF7ACFF0246002840F092802D
:10264000FF2E03D949494A4834F0D2FA494C751C47
:10265000D4F82C0390B1D4E9CC132B448B4229D964
:102660002944FFF765FF0746D8B90246D4F834136A
:10267000D4F82C03FFF75CFFC4F82C73802D2F4691
:1026800038BF80273846FFF738FFC4F82C03D0BB8B
:102690002846FFF732FFC4F82C0398BB284634F0D5
:1026A00093FAD4F830332B44C4F83033D4F82C33B5
:1026B000002BE3D0D4F834334146D4F82C734FF0D8
:1026C000000832461F442B443846C4F834332CF0FB
:1026D00055FE3146384607F80680FFF73DFF636A2E
:1026E0008146D3E90253AB422AD36D000A2D38BF8D
:1026F0000A25C5EBC5001830FFF7FFFE48B9C4F83E
:102700002C03CBE72F460023C4F83073C4F83433CE
:10271000D0E700F11802616A02EB850201600261F4
:1027200002EB450242614A68C968C2F31E02C0F862
:102730000C800A44416862F31E01C0E90115606221
:10274000626AD2E90331526921F81390991DD65477
:10275000626A42F82170D1680131D1605268C2F3D7
:102760001E021A441046BDE8F88300BF7B6D03606B
:1027700090EA03600008002010B504462CF071FEBA
:1027800001462046BDE81040FFF750BF07B5019055
:1027900001A8FFF7D1FE019A036933F8120003B0D4
:1027A0005DF804FB07B5019001A8FFF7C5FE019B8A
:1027B0004269D05C03B05DF804FB07B5019001A845
:1027C000FFF7BAFE019B063350F8230003B05DF813
:1027D00004FB13B5019001A80C46FFF7ADFE019B69
:1027E0004269D25C063350F82300226002B010BD6B
:1027F0002DE9F8431D460023074688460360164628
:102800000B6013602B60154BDFF854905C6A64B961
:102810002B68326813442B60BDE8F883336812F8E4
:10282000010B0133034433600DE04C45F0D03B68AD
:1028300001333B60E268D8F8003013446269C8F89D
:102840000030E368D1188A42E8D3204634F0F0F92A
:102850002B68246803442B60D9E700BF00080020E0
:102860000C2904602DE9F8430D4B0E4F5C6ADFF82C
:102870003880DFF838900CB1BC4201D1BDE8F88354
:1028800004F11805E36805EB8306B54201D324681B
:10289000F1E755F8042B4146484600F005FDF4E702
:1028A000000800200C290460836D036044D9036094
:1028B00030B50023202511F8012F0AB9027030BD70
:1028C000120600F101041FD513B120230370204626
:1028D0000B78124A03F07F0363B9013A12F8013F03
:1028E0000446013013F0800F0BD003F07F032370F8
:1028F0000123E0E712F9014B002CFBDA013BDBB2CC
:10290000EAE700F8013CE9E7012B04BF0570204627
:102910000B7800F8013B0223CDE700BF8A6D03600E
:1029200038B54368054619440368994210D9037BBA
:102930001BB10021074834F05BF901F110048068F5
:1029400024F0070408342146FFF7E7FD2C60A86057
:1029500038BD00BF90EA036070B504460E461146CC
:102960001546FFF7DDFF31462A46D4E90130184409
:102970002CF02BFD63682B44636070BD70B5466816
:102980000446B14228BF31460D460121FFF7C8FF7A
:10299000A368681C721B591918442CF016FD636853
:1029A000A06801332844636070BD012938B538BF81
:1029B000012104460025084621606560FFF792FD6D
:1029C0002573A06038BD38B505460C460131FFF7C8
:1029D000ECFF6C6038BD00230160C0E901320123C7
:1029E0000373704738B514460546FFF7DEFF024B08
:1029F0002560636038BD00BF59290060037B10B5B6
:102A0000044613B98068FFF795FD0023A36010BD4D
:102A100038B505461020FFF765FD04462946FFF747
:102A2000C4FF204638BD10B5044648B1037B13B936
:102A30008068FFF77FFD2046BDE81040FFF77ABDB4
:102A400010BD000038B5037B04460D461BB10021C4
:102A5000064834F0CDF8016880682944FFF75DFD31
:102A60002368A0601D441844256038BD90EA0360C7
:102A700038B504460D46FFF753FFD4E901301D4435
:102A80001844656038BDD0E9002310B59A42044669
:102A900002D10121FFF7D6FF0021D4E90132D15440
:102AA000A06810BD10B50C460121FFF7E1FF0470CE
:102AB00010BD7F29F8B50C46CEB204D80121FFF72E
:102AC000D7FF0670F8BD06F03F06B1F5006FC1F301
:102AD000871546F0800607D265F03F050221FFF713
:102AE000C7FF46700570EDE705F03F05B1F5803F83
:102AF000C1F3073745F0800508D267F01F070321AF
:102B0000FFF7B6FF457007708670DBE7A40C07F08F
:102B10003F07042164F00F0467F07F07FFF7A8FF69
:102B2000857004704770C670CCE738B505460C4612
:102B300008462CF096FC214602462846BDE838405F
:102B4000FFF70ABF10B51446FFF718FF047010BD59
:102B500010B51446FFF712FF047010BD43688B4296
:102B60002CBF591A00214160704738B504461546FC
:102B7000084662688A4203D929448A4201D86060C3
:102B800038BDA368521A184419442CF01EFC63681F
:102B90005B1B6360F4E70846114634F045B870B536
:102BA000054608460E462CF05CFC044620B1024661
:102BB0006B68314628689847204670BD2DE9F74F6D
:102BC0008A469DF8301091460D9A11F0DF0F0646A7
:102BD000A2EB09023FD030290CA9254F1ABF4FF0B4
:102BE00001080F464FF0100813F0800537D002EBB4
:102BF000D2746510A2EB6404002D37DDAB46D845D6
:102C0000424673683946A8BF5A46306801929847D1
:102C1000019AABEB020BBBF1000FF0DCB9F1000F36
:102C200005D04D4473684A46514630689847002C99
:102C30000DDD2544A045C14673683946A8BFA146AD
:102C40003068A4EB09044A469847002CF2DC284679
:102C500003B0BDE8F08F074F4FF01008C4E713F042
:102C6000010401D11546C7E71446D7E70025D5E78B
:102C70004CD903605DD903602DE9F043064689B065
:102C80000020119D9DF84880139F8DF80F000AB316
:102C900081421ADA2D2249428DF80F20109A08AC91
:102CA0000DF11009A2F10A008E46B1FBF3FC03FB03
:102CB0001C126146092A8CBF1218303204F8012D0B
:102CC0004C450ED07345EFD90BE0A80727D52B2232
:102CD0008DF80F200029E1D130230DF11F048DF86C
:102CE0001F3015F040099DF80F301CD023B301228E
:102CF0002B460DF10F013046013FCDE90082FFF771
:102D00005DFF814608AA2B4621463046121BCDE9BD
:102D10000087FFF753FF484409B0BDE8F0836A0716
:102D2000D8D52022D4E7002BECD004AA9442E9D9CC
:102D300004F8013C013CE5E79946E3E72DE9F04F53
:102D400093B081461E46C8079DF874300C469246E3
:102D50001C9D0793DDE91E870BD4A10703D12168D1
:102D60007F4B994205D020460AF052FE440044F0C1
:102D7000010415F0810306D1079A302A03D1B84522
:102D8000B8BFB8461F4620460DF1280B0EF0F7F8E5
:102D9000002818DBAA0712D52B238DF828300DF157
:102DA0002903E806F6B21CD5BAF1020F0DD1302086
:102DB000194601F8020B701C58700B4611E06B07A6
:102DC00001D52023E9E75B46EBE7BAF1080F62D1B2
:102DD00030211970A90549BF06F10E010133597060
:102DE0000233002115F0200F0EA81970A3EB0B037E
:102DF0000B904FF01000069314BF2C230B46012FAD
:102E00008DF82710C8BF45F0400515F04002CDE908
:102E10000C010592CDE9026347D023460DAA0BA809
:102E2000CDE900A10CA90DF07FFF037882462D2B80
:102E300006D18DF8273000F1010A0D9B013B0D935F
:102E4000012F40F385800D9C059BBC42B8BF3C46DA
:102E50002BB19DF8273003B10134069B1C44A045DB
:102E60002EDD15F00103A8EB04042AD126461C46EA
:102E700025F001054EB1202301963A4948460093BA
:102E800000231A46FFF79AFE0646059B002B5CD1ED
:102E9000302307933AE0BAF1100FA2D1302019463F
:102EA00001F8020B06F1170086E70AAB0DAA0CA980
:102EB0000BA8CDE900A323460DF036FF8246BFE7FD
:102EC00000240026D4E7002426469DF827305BB175
:102ED000002301220DF12701484608F1FF38CDE912
:102EE0000032FFF76BFE0644069B63B1002301220C
:102EF00059464846CDE90032069AFFF75FFE069B29
:102F00000644A8EB0308012FD8BF4746079B51464C
:102F10000D9A484600932B460197FFF74FFE064453
:102F20004CB120230F4948460194009300231A46D0
:102F3000FFF744FE06440B980EAB984201D0FFF712
:102F4000F9FA304613B0BDE8F08F30230793BCE7A1
:102F5000059B002BB7D11C461E464746D6E700BF4F
:102F60001CF003605EB603602DE9F04316469846F8
:102F70008BB00746B2070A4602A84FF0200154BFA3
:102F8000C6F380032B23DDF8489058BF5B01009304
:102F9000139B09F005FCF305044610D5431C1F2BB9
:102FA0000DD800F1280200210DEB0204252204F8BF
:102FB000202C03F128021C466A4402F8201C16F05B
:102FC00040051DD09DF808302F2B4FF0000319D875
:102FD000012202A9384609F1FF39013CCDE900324E
:102FE000FFF7ECFD0DF10901054633462246384650
:102FF000CDE90089FFF7E2FD28440BB0BDE8F0837E
:1030000002A9F2E702A91D46EFE700002DE9F04F03
:10301000074689B0144600254FF00A080B461E46A5
:1030200013F8012B82BBB14231D30B78002B00F097
:103030003381013120234FF0000A084610F8012B9C
:1030400032B12B2A38D02BD8202A38D0212A39D097
:103050004FF000090E4611F8012BA2F130000928AB
:1030600033D92E2A53D172782A2A33D000220E4621
:1030700011F8010BA0F1300CBCF1090F2DD808FBA1
:10308000020BABF13002F2E7252AC8D1CBE7A6EB61
:1030900001097B6838684A464D4498473146C4E781
:1030A0002D2A05D0302AD3D14AF0400A134601E038
:1030B0004AF0010A0146C0E74AF0020AFAE74AF07C
:1030C000040AF7E74AF0080AF4E708FB0922A2F12C
:1030D0003009BFE7023654F8042B22EAE27B32784B
:1030E0006C2A08BF01363178002900F0D580782994
:1030F00006D857290ED8472956D8442900F2C0804F
:103100007B680122314638680135984762E04FF00C
:10311000FF3BE4E7A1F15802202AF1D801A050F8C2
:1031200022F000BF613200600131006001310060B7
:103130000131006001310060013100600131006047
:10314000013100600131006001310060BD3100607B
:10315000DF31006045320060813200608132006002
:103160008132006001310060013100600131006096
:103170000131006001310060013100600131006007
:1031800001310060AD310060F33100600131006059
:103190001D32006001310060613200600131006069
:1031A00001310060613200605029A9D1CDF804A03E
:1031B000CDE902396123009310235FE054F8042B1A
:1031C000CDE9003953463AB1042235493846FFF774
:1031D000F5FC0544711C21E705223249F6E754F855
:1031E000042B07A98DF81C200122CDE90039534694
:1031F000ECE707A954F8040B0493FFF7EAFABBF1D4
:10320000FF3F0146049B04D0079A934538BFCDF891
:103210001CB0079ACDE900395346D7E754F8041B90
:103220000593084604912CF01CF9BBF1FF3F0246C0
:10323000DDE9041302D0584528BF5A46CDE90039CC
:103240005346C3E7CDE9023961230122CDF804A03A
:1032500000930A2354F8041B3846FFF70DFDB8E726
:103260004A1C21F00F01CDF804A002F006020F392C
:10327000CDE90239C9B2C2F1100300910022E9E799
:1032800007345246384624F00704CDE9009BB4ECDD
:10329000020BFFF769FE9CE7284609B0BDE8F08FF6
:1032A0009A9703609F9703600EB403B503AA52F880
:1032B000041B0192FFF7AAFE02B05DF804EB03B015
:1032C00070470346007893F90020002A0ADA00F0DC
:1032D0007F004022104206D113F8012F02F0C001F6
:1032E000802904D0704720EA02005208F2E702F079
:1032F0003F0242EA8010EFE7431C18460133027890
:1033000002F0C002802AF8D070470346002099429C
:1033100000D8704711F8012D02F0C002802A18BFB2
:103320000130F4E703460144002099421A4600D8D0
:1033300070471278013302F0C002802A18BF0130B2
:10334000F3E700007F289DBF024B185CC0F34000EC
:10335000002070476ED903607F289DBF024B185C28
:10336000C0F3C000002070476ED903607F289DBF66
:10337000024B185CC0F38000002070476ED90360D8
:103380007F289DBF024B185CC0F38010002070475F
:103390006ED903607F2809D8064B1B5C13F00C0F15
:1033A00006D1A0F15F035842584170470020704792
:1033B000012070476ED903607F289DBF024B185CC7
:1033C000C0F30010002070476ED903607F289DBFB6
:1033D000024B185CC0F34010002070476ED90360A8
:1033E00008B50246FFF7E8FF00B12032104608BDDD
:1033F00008B50246FFF7EAFF00B1203A104608BDC3
:103400003038092884BF20F0200007387047024672
:103410000144002010B5E524914203D8B0FA80F0B1
:10342000400917E012F8013B30B103F0C003802BD4
:1034300011D10138C0B2EFE7BF2B09D9F72B09D85A
:10344000DB0803F0060344FA03F303F00300E3E7A9
:103450001B06E1D510BD0020FCE7023981420B4676
:1034600003D31A880239002AF8D00233181A401000
:103470007047B2EB131FF0B504464FEA13151AD983
:10348000501B01EB450103F00F03264605460F468E
:1034900035B904EB400434F8023C03B90138F0BDFF
:1034A000012D31F8022B05F1FF3518BF3A68DA40DB
:1034B00026F8022BEBE70020F1E7F0B5059F00248A
:1034C000D21B2546A7420FD100EB4706002301EB94
:1034D00047019A4213D106EB420315B1023326F895
:1034E0001250181A4010F0BD31F8146033F814C0AF
:1034F0006644354420F814502D0C0134E2E731F8CD
:1035000013402C4426F81340250C0133E1E7F0B4B6
:103510000E46002504992C46521AA9420BD100EB05
:103520004105002306EB41069A420FD105EB42010B
:10353000F0BCFFF792BF36F815703C4433F81570B5
:10354000E41B20F8154024140135E6E736F8131083
:103550000C4425F8134024140133E5E72DE9F0432A
:10356000079C0239DDF828E0154684464FF6FF78BF
:10357000A4EB0209DDE9087655B900EB42011FB161
:103580000123023120F81230BDE8F043FFF765BF98
:1035900031F8024F013D4444264405EB0904A5429D
:1035A0002ABF33F8024B4FF6FF744444744486EA52
:1035B000040E360C17FA8EF74FEA144E2CF8027BE5
:1035C0003F0CD9E7022938B538BF0221044680688C
:1035D0000D4618B12368B1EB930F07D96900FEF7C8
:1035E0009CFF2368A06065F39F03236038BD38B556
:1035F00004460C20FEF776FF054623682278C3F3C5
:103600009D0023F0030302F00102400013432B60EE
:1036100063686B60FEF766FFA8602268A168C2F36A
:103620009D0252002BF0AAFE284638BD994210B5E3
:1036300011D313D800EB410002EB410209B908464F
:1036400010BD30F8023D32F8024D1B1B002B02DB8F
:1036500004D10139F2E74FF0FF30F1E70120EFE745
:1036600010B5044638B18068FEF764FF2046BDE817
:103670001040FEF75FBF10BD70B50C460221054635
:10368000FFF7A0FF002C2B78B5BF0122002261427A
:10369000214662F30003AA682B70012388B2144606
:1036A000090C1E4622F8020B03F10103F6D16E60ED
:1036B000208070BD0023C0E900338360704728B1CB
:1036C00003789B0702D48068FEF734BF704738B593
:1036D00004460D464968FFF775FF2A782378A068ED
:1036E00062F3000323706A68A96862605200BDE853
:1036F00038402BF043BE0A4629B90178426062F394
:10370000000101707047FFF7B7BF08B5FFF7D2FFA0
:10371000BDE80840FFF7EFBF920042F002020260EE
:10372000002210B4C0E901215DF8044B1946FFF7EF
:10373000E2BFF8B514461D469DF8187004210646F0
:10374000FFF740FF22462B4627B1002D0CDA6242DC
:1037500065EB4503317867F300013170002171603A
:1037600052EA030102D1F8BD0027F3E7D6E90110C0
:103770004C1C746020F81120120C42EA03421B0C0E
:10378000EEE72DE9F84353EC102B1E46154603785F
:103790008046F20F62F30003037047F6F07313EAFA
:1037A00016420AD198F8003023F0010388F800305F
:1037B0000023C8F80430BDE8F8839A42F2D0C6F37B
:1037C0000A53A3F2FF34002CECDB04D10121BDE845
:1037D000F843FFF751BFA3F2EF37C6F31306332CBC
:1037E0004FEA271746F4801642DCC4F13402A4F1F4
:1037F0001403C4F1140406FA03F3D54026FA04F4C2
:10380000D6401D4325430024A14639464046FFF7D4
:10381000D9FEC8F80470B9F1000F06D04FEA49028A
:103820000021D8F808002BF0E8FDA4B105FA04F255
:10383000D8F8083023F81920C4F11003103409F126
:103840000109A3F12002DD4006FA04F426FA02F28F
:10385000DE40254315434B469F42ACD0D8F80820A4
:1038600022F813502D0C013345EA0645360CF3E7D8
:103870000C34A3F2334304F00F044FEA2319C4E7D6
:103880002DE9F8438F18C2F35B0204460D46511C24
:103890009846089EFFF796FE2378AC4600221FFA52
:1038A00086FE68F300032370BC456046626002D365
:1038B000401BBDE8F88301780CF1010CA1F1300345
:1038C000092B05D9A1F14103192B12D8A1F1370316
:1038D000B342EDD2A06890468146B8F1000F0FD1F7
:1038E00000EB420113B1023120F81230091A4A10DC
:1038F000DAE7A1F16103192BDAD8A1F15703E7E761
:10390000B9F8001008F1FF380EFB013329F8023B2B
:103910001B0CE2E7F8B5044615461E4651B3531E8C
:103920004FF0FF371E44E90020460F310909FFF729
:1039300049FE2378002123F0010361602370DDB18B
:103940000F294FF000030DDC3278013D3E4402FAAE
:1039500001F201F1080143EA02039BB202D00F29F0
:10396000F2DD102162681039501C6060A06820F8F8
:103970001230E4E70127D6E7D4E9011000EB41015A
:10398000FFF76BFD6060F8BD38B5057804460B782D
:1039900005F0010203F00103981A08D1D1E90132C0
:1039A000D4E90110FFF742FEEB0748BF404238BDA3
:1039B000884210B5044601D0FFF789FE237823F032
:1039C0000103237010BD884210B5044601D0FFF7F3
:1039D0007EFE63683BB12378C3F3000282F00102EC
:1039E00062F30003237010BD88421FB5044601D066
:1039F000FFF76DFE626862B901212046FFF7E2FD24
:103A00000123A26813806360237843F001032370CD
:103A100010E02378D9070FD523F001032370012389
:103A20000093A168ADF80E300DF10E030846FFF7C4
:103A30006EFD606004B010BD511C2046FFF7C2FD52
:103A400001230093ADF80E300DF10E03D4E90121EE
:103A50000846FFF732FD6060D6E74B682DE9F04776
:103A600005460E46144603B12AB931462846BDE83C
:103A7000F047FFF72CBE02F10F014FEA111803EBDC
:103A80001111FFF79FFDA96814F00F044FF0000C0F
:103A9000D6E9012308BF102408EB020703EB420319
:103AA000C4F1100407F1004001384FEA400901EB6E
:103AB00040001146864609BB6FF001032CFA04FC56
:103AC000C8F1010809F102095A43831820F802C01D
:103AD0004FEA480203EB4803524218462BF08DFC94
:103AE00003464B4417B133F8022D9AB12B786F601F
:103AF000327862F300032B70BDE8F08733F802AD33
:103B000001394AEA0C0C2CFA04FA4FEA0C4C2EF854
:103B100002A9D0E7013FE5E72DE9FF410D464968DD
:103B20000646144601B132B92946304604B0BDE814
:103B3000F041FFF7CCBDFFF745FDB768D5F8088029
:103B400023466A6838464146FFF793FC3378706035
:103B50000246297861F300033370DB070AD500239E
:103B600020096968ADF80E30994201D0834204D132
:103B700081420AD804B0BDE8F08138F813509DB1F5
:103B800001238142ADF80E3012D904F00F04012355
:103B900038F8101003FA04F4013C214206D1BDF8B4
:103BA0000E30002BE6D003E00133DDE7ADF80E3038
:103BB000012312B93B807360DCE7009339460DF1B5
:103BC0000E033846FFF779FC7060D3E773B51446EF
:103BD0000D460646D2E90132D1E90110FFF726FD74
:103BE0000028A2BF23462C461D46237861682A7808
:103BF0005340DB071AD401313046FFF7E3FC6B6812
:103C00000093AB68B068D4E90121FFF756FC7060FF
:103C100023783278C3F3000300280CBF002303F09D
:103C2000010363F30002327002B070BD3046FFF74B
:103C3000C9FC6B680093AB68B068D4E90121FFF759
:103C400066FCE4E7F7B514460F460546D2E90132B3
:103C5000D1E90110FFF7EAFC0028A3BF23463C4648
:103C600000260126A8BF1F46237861683A78534092
:103C7000DB0719D501312846FFF7A4FC7B680093C8
:103C8000BB68A868D4E90121FFF717FC686028B178
:103C9000237803F001000EB180F001002B7860F36F
:103CA00000032B7003B0F0BD2846FFF78BFC7B6848
:103CB0000093BB68A868D4E90121FFF728FCE5E779
:103CC0002DE9F04F15464A680C4685B06B680646EC
:103CD0009A4222BF2B460D461C462B786968DB07AB
:103CE00022D4237813F001071ED1FFF76BFCB068D4
:103CF000AD683B46D4E9011C99420CD100EB41016F
:103D0000FFF7ABFB00237060327863F30002327080
:103D100005B0BDE8F08F35F813203CF81340224081
:103D200020F813200133E7E701313046FFF74AFC62
:103D30002F78237807F00108D5F804C087EA03013B
:103D400047F30007B06803F00109C94343F30003D8
:103D5000A268824601F0010E41F300019BB289B2D4
:103D600000930191B9B267460291A968A1F1020BD3
:103D70006168A1EB0C0103918FB900EB4C01BEF11E
:103D8000000F03D00123023120F81C30FFF765FB40
:103D9000706022782B78C2F300021340B4E73BF83E
:103DA000021F013F029B5940039B8844D919B94225
:103DB0009BBF32F8021B009B00995940019B89442C
:103DC00008EA09014FEA19494FEA184859401EFA12
:103DD00081F14FEA114E2AF8021BCDE72DE9F84F89
:103DE00014464A680D46064663689A4222BF234637
:103DF0000C461D4623786168DB0732D42A7812F01E
:103E000001072ED1FFF7DEFBA16864683A46D6F8B9
:103E100008C0D5E9013EE41A934213D101EB4301F6
:103E200000220CEB4303944215D103EB4403002220
:103E3000A3EB0C0358103378706062F30003337007
:103E4000BDE8F88F31F812003EF8125028432CF8E4
:103E500012000132E0E731F8120023F812000132BB
:103E6000E1E701313046FFF7ADFB22782B784FF0C8
:103E7000010A616802F00108B06803F0010942F329
:103E8000000243F30003A468834692B29BB2A4F1FC
:103E9000020CD5E901E70D46AEEB010E2DB900EBA2
:103EA0004101FFF7DAFA0122C5E73CF8024F013D74
:103EB0005440A0440EEB0504A5422ABF37F8024B3C
:103EC0001C465C40A14448EA09044FEA19494FEAFC
:103ED0001848E4431AFA84F44FEA144A2BF8024BC8
:103EE000DCE7F0B514464A680D4685B063680646BF
:103EF0009A4222BF23460C461D46277861682B78DC
:103F00005F4017F001073BD1FFF75CFB237813F00C
:103F1000010329D16268B068A768D5E9015C521B2A
:103F20009D4212D100EB4501002307EB45079A4261
:103F300014D101EB4201FFF790FA0027337870604B
:103F400067F30003337005B0F0BD37F813103CF889
:103F50001340614020F813100133E1E737F81340B4
:103F600021F813400133E2E7CDE9027701976B684E
:103F70000093AB68B068D4E90121FFF7EFFADCE702
:103F800001310127FFF71EFB2B78DB4303F0010310
:103F9000039323780197DB4303F0010302936B68DB
:103FA0000093AB68B068D4E90121FFF7D7FAC5E701
:103FB0004B682DE9F04F044685B00E4615460BB10F
:103FC000536843B9237823F001032370002363600F
:103FD00005B0BDE8F08F81422DD1FFF708FBA54267
:103FE000064607462ED06B68204671681944FFF7D5
:103FF000E9FA22680021A068C2F39D0252002BF06A
:10400000FCF9B368D4F808E00022D6F804900193D4
:10401000F446AB680EEB4908114602936B680393B4
:10402000039B934233D0ACF10200DDF804B00023CF
:10403000CDF800901AE0824206D1FFF7D8FA054683
:104040000746D0E70546CEE70027CCE730F802AFB9
:1040500053443BF802AB1946029B33F8123003FB82
:104060000A130099038001391B0C00910099002963
:10407000ECD14146881C13B10146A8F80030A1EBF1
:104080000E010CF1020C013280464910C8E7616054
:1040900038462A7833785340227863F3000222703E
:1040A00005B0BDE8F04FFFF7DBBA4B6870B50546C9
:1040B000144613B11378DA0706D52B7823F00103E1
:1040C0002B7000236B6070BD636823B90121BDE8CC
:1040D0007040FFF7D1BA0846FFF789FA0646204636
:1040E000FFF785FA012104462846FFF7C5FA636801
:1040F00083B1A3681B88DB0704D5324629462846CE
:10410000FFF756FF0123D4E901210846FFF7B1F973
:10411000606038B93046FFF7A3FA2046BDE870402A
:10412000FFF79EBA324631463046FFF741FFDEE7E1
:104130002DE9F04F0C4651688FB09346013105468A
:104140000393FFF73FFADBF804200021A86800265C
:10415000013252002BF051F92B786E60204623F08B
:1041600001032B70DBF804100131FFF72BFA5946DD
:104170002046FFF7ACFA039BD4F80890D4F80480EB
:1041800048464146D3E9013702933A46AB68049367
:10419000029BFFF74BFA002835D10123049A606097
:1041A00013806B6023786168C3F3000200290CBFA1
:1041B000002202F0010262F30003039A23709BF8CD
:1041C000003012785340DB0740F1FC806B682A789E
:1041D000003B18BF012363F300022A70002900F09E
:1041E000F1800BA84FF0FF31FFF78FFA0BAA294699
:1041F0002846FFF7EBFC039A214620460FB0BDE8A6
:10420000F04FFFF7E3BC01DA6E60CBE7029B03F1EE
:1042100000423346013A4FEA420A37F812100E04C0
:1042200003F101004ED509EB48014FF0000C9BB2A1
:1042300008F101000191CE46C3F11006023129F8C0
:1042400018C0059660608E4540D337F812209A401A
:104250000592029A012A09D907EB0A02C3F110015B
:1042600032F8022CCA40059911430591029A801A2E
:10427000049A686000F10040013802EB40020792A6
:104280000AF102020992BA1E0892D4F804A0029A16
:10429000524529D30AF1004A0022C3F110000AF165
:1042A000FF3A09EB4A0AD14573D96FF000416B68B8
:1042B0002BB15A18049830F81220002A73D06FF0EE
:1042C000004175E04900034689B2A8E7BEF80080C6
:1042D00008FA03F64CEA060C059E28FA06F82EF8B2
:1042E00002CB1FFA88FCAEE7019A0198118832F8D8
:1042F000022C42EA01420599B2FBF1F20999411AF6
:104300000020069186460899069F0E460199B942FB
:104310000DD809880844A8BB079921F80229019AF9
:104320000791023A01920AF1FF326260ADE736F876
:10433000021FB7F80080994018FA80F841EA1E4E33
:104340001FFA8EF151431FFA81FC090CA8EB0C0CEB
:10435000C1EB204127F802CB01EB2C40D6E738F81F
:10436000021F994041EA1E4EBCF80010394411FA70
:104370008EF10F0C2CF8021B01996145EFD83844DF
:10438000013AC8E70027DDF82080DDF818C0BE46F6
:10439000F2E7BAF8001041FA03F6814032432AF8F6
:1043A00002298AB27FE7013B6B6080E7013B6360D3
:1043B0006368002B3FF4F6AE5A1839F81220002A31
:1043C000F4D0EFE60FB0BDE8F08FF0B51F464B68B4
:1043D00085B004460D4616464BB11378DA0706D46D
:1043E0007B68012B0BD1BB681B88012B07D123787D
:1043F00023F0010323700023636005B0F0BD0121A9
:104400002046FFF739F97368002BF6D02846FFF7EE
:10441000EEF805463046FFF7EAF8064601A8FFF732
:1044200049F97368B3B1B3681B88DB070AD52A461C
:1044300021462046FFF7BCFD3B462246214601A807
:10444000FFF776FE0123D6E901210846FFF711F8B0
:10445000706058B901A8FFF732F92846FFF700F954
:10446000304605B0BDE8F040FFF7FAB82A462946C5
:104470002846FFF79DFD3B462A46294601A8FFF73F
:1044800057FECEE7D0E901210346002001EB4202AE
:1044900010B5914204D31B78DB0748BF404210BDE2
:1044A00032F8024D44EA0040F3E730B5D0E9012488
:1044B000002304EB4202944206D302780120D20783
:1044C00048BF5B420B6030BDB3F5004F04D232F8F9
:1044D000025D45EA0343EEE70020F4E72DE9F047EB
:1044E0000546D1B1981800264FF0010C03EB0209E4
:1044F0003746D5E90184A4F1020EB8F1000F0ED1C0
:10450000B9B3C21A18462B7813F0010FBDE8F04773
:1045100014BFFF2100212AF070BF1846E3E73EF8E0
:10452000024F103744EA064695F800A0072F0AF01C
:10453000010A02DC08F1FF38DFE7B4B2BAF1000F7C
:1045400006D0E4435CFA84FC1FFA8CF4CCF3072C0D
:10455000E4B249B100F1FF3A00F8014C53450BD0E9
:10456000083F360A5046DFE782460AF8014BCA4543
:10457000F5E713441A1AC6E7BDE8F087000000000B
:10458000D0E901329FED0C0B9FED0D6B02EB430365
:104590009A4205D30378DB0748BFB1EE400B704762
:1045A00033F8021D07EE101AB8EEC77B00EE067B4B
:1045B000B0EE470BECE700BF000000000000000079
:1045C000000000000000F0402DE9F84F44688146EB
:1045D0008A4615461E469DF828B00B9F9CB982B1AD
:1045E000551E3A4615F8011F134639B930221A7084
:1045F000002203F8012FD81BBDE8F88F02F8011B39
:10460000F0E73B46F2E764002046FDF76BFF80468B
:104610002246D9F808102AF0B1FE3A463B4608EB8C
:104620000401A6F13A008C1E0026A045A4462CD910
:1046300030361C46392E88BF361804F8016B4646C2
:10464000B142B4462CD8BBF1000F40D14046FDF733
:1046500071FF5DB128462AF004FF2A18611E134637
:10466000AB4236D8954288BF0020044499F8003008
:10467000DB0744BF2D2304F8013B3B46621E9A42F0
:104680002CD80023E01B2370B6E7BCF800C04CEA2E
:104690000646B6FBFAFC0AFB1C6624F802C9C4E70E
:1046A000BCF800C00236BCF1000FC9D0BBF1000F4E
:1046B0000BD00026A4EB020CBCF1030F02BF9C1C24
:1046C00083F801B02246002EC0D12346ABE7012675
:1046D000F0E713F8016D01F8016FC1E71978107860
:1046E00003F8010B02F80119C9E7D0E9023293423D
:1046F0003DBF5A1C826018784FF0FF307047036846
:1047000010B5044613B14068FDF714FF2046BDE81C
:104710001040FDF70FBF0000F8B50C461F461646C7
:1047200005461020FDF7DEFE054B8460C0E90074ED
:104730003444C4606B60034B2860AB60F8BD00BFBD
:10474000EB460060FF46006002690A2A10B5044685
:1047500035D1836A013383620123A269E36263690D
:104760006261226F2361002A31D0616E8A423BBFB1
:10477000501CA16E0022206738BF8A5CA2613BB941
:10478000E26963662261226A23676261626AA261EA
:10479000D4E905230D2A07D10A229342626103D18D
:1047A000D4E901039847A061A369013306D1636985
:1047B0005A1C03D00A2B1CBF0A23A36110BDC36A75
:1047C000092A04BF073323F007030133C5E7D4E9FF
:1047D00001039847A061DBE701690246272901D060
:1047E000222912D1012024E05369272BFAD0222B51
:1047F000F8D0722914D1662B16D190692728F1D0F0
:10480000A0F12203584258417047A1F162001328D9
:1048100004D8084B034113F00100E5D00020704795
:10482000662904D1722B00E0622B02D1E5E76229F0
:10483000F8D07047EEFFF6FF38B504460D46206904
:10484000431C1AD00A2806D10DB1636BB3B12046C0
:10485000FFF77AFFF3E7FEF775FD0028F7D123692C
:10486000232B08D12046FFF76FFF23695A1CE6D09F
:104870000A2BF7D1E3E75C2B02D00025284638BD90
:1048800063690A2BF9D12046FFF75EFFDFE70000DE
:10489000436E2DE9F04F044685B0A3B1036F93B981
:1048A00029216030FEF7FEF82369E3616369236222
:1048B000A3696362A36E1A7822615A7862619B7859
:1048C000A361032323670023012120466365FFF7CB
:1048D000B3FFA36A266B6364002EE36AA36407DA5E
:1048E0000823013684F84C30266305B0BDE8F08F0C
:1048F00004D00723013E84F84C30F5E7002837D078
:1049000031462046FFF798FF06236FF00042E56A24
:1049100084F84C30013DD4E90F30991830F811106B
:104920008D42E2D019D9A16B8B4207D308314900DF
:10493000FDF7F3FDA36B20640833A363D4E90F32C2
:10494000591CE16322F81350236B01332363CCE736
:10495000013BE363236B013B2363E36B991830F85E
:1049600011108D42F4D3C0D0022384F84C30BCE740
:1049700025696F1C02D184F84C00B6E72046FFF78A
:104980002BFF0746002800F0BC8184F84C602369A7
:10499000722B67D008D8622B0DD0662B69D0B14638
:1049A0000025A8460C230EE0A3F17505D5F10009FA
:1049B00049EB0509F4E763690025722B63D0A8462B
:1049C0004FF001090D2394F84C20002A62D184F89D
:1049D0004C30B9F1000F08D02046FFF7B5FEB9F111
:1049E000020F02D12046FFF7AFFE23692046222B9B
:1049F0000CBF4FF0220A4FF0270AFFF7A5FE2369EC
:104A000053454AD163699A4547D120464FF003097F
:104A1000FFF79AFE2046FFF797FE25B19E4904F165
:104A20006000FEF782F804F1600200230192216920
:104A3000481C00F06081B9F1010F02D10A2900F091
:104A40005A814B452CD3194604F15000FEF786F8E5
:104A500001212046FFF7F0FE2046FFF7BDFE0028AB
:104A600095D142E76369622B0CD0662B0FD10523E9
:104A70007BE76369722BFAD03D464FF000084FF098
:104A800001098FE70025B8464FF002099AE7002593
:104A9000B846F4E79A429CD027E74FF00109BCE7FB
:104AA0008A456DD10133514604F150000293FEF75F
:104AB00000F8029B20460293FFF746FE029BB6E7F2
:104AC00020460291FFF740FE23697B2B10D104F1B1
:104AD00050000299FDF7E6FF2046FFF735FE7B21E7
:104AE00004F15000FDF7DEFF21697B29E8D049E0A1
:104AF00028210198FDF7D6FFD4F864B0002221697F
:104B0000481C0FD042BB3A290CD07D290AD021295C
:104B100022D160697238012823D8A0693A2801D0CF
:104B20007D281ED1D4E91921881810F8010C3D28E0
:104B300009D1A2EB0B02594404F15000FDF70CFF20
:104B4000636E013B636601982921FDF7ABFF2C21C1
:104B50000198FDF7A7FFC2E721F020005B280AD1EA
:104B60000132C9B201980292FDF79CFF2046FFF77F
:104B7000EBFD029AC3E75D2808BF02F1FF32F0E7C0
:104B8000002DB2D15C2940F0B08020460291FFF7A1
:104B9000DBFDD4F810B00299B8F1000F05D004F194
:104BA0005000FDF786FF59466FE0BBF1780F09D83A
:104BB000BBF15B0F08D8BBF1220F44D023D8BBF167
:104BC0000A0F64D05C21EAE7ABF15C021C2A67D8CB
:104BD000DFE802F0396666666685266666662E66DA
:104BE0006666666666662A6666660F6628302C66A6
:104BF0005F000D2194F84C300C2B72D104F1500061
:104C0000FDF757FF43E0BBF1550F13D0DAD8BBF1E6
:104C1000270F18D0BBF14E0F42D1204831F048FF8A
:104C20000821E7E70921E5E70A21E3E70B21E1E7AE
:104C30000C21DFE794F84C200D2A06D15C2104F109
:104C40005000FDF736FF5946D4E7BBF1750F14BF8E
:104C50000823042303F1FF3B002120460291FFF7C4
:104C600073FD226910460392FEF78AFB002800F0CC
:104C70005B810299039A090110460291FEF7C0FB7D
:104C80000299BBF1010B0144E7D24B1C20D1002358
:104C900010E70223DEE700BFEA970360F3970360A3
:104CA000ABF1300107298DD84FF0030B08E0204607
:104CB0000291FFF749FD22690299303A02EBC101E6
:104CC0006269303A072AE0D8BBF1010BEFD1DCE78B
:104CD000B1F5881F8ED3012384F84C30D7E7072124
:104CE00088E7FF29F7D80D2BF5D1C9B204F15000A0
:104CF000FDF7D8FECBE74B453CBF032284F84C20A0
:104D0000A1E62846FEF728FBD8B920695F2818D00D
:104D10007F2816D8FEF72AFB002856D123692E2BB0
:104D20004ED00026834D2F781FB12369BB4240F03F
:104D3000A4802046FFF708FD002F40F0A680012345
:104D400013E6092304F1500584F84C30217C2846F1
:104D5000FDF7A8FE2046FFF7F7FC2069421C1BD197
:104D60002846754FFDF78FFE0025064657F8041BB1
:104D700030462AF07DFB00281CD10F35EDB2122DF4
:104D800084F84C507FF4B1AD6C4BD3F83833002B22
:104D900014BF0F231123E8E5FEF7DEFA0028D5D172
:104DA00020695F28D2D07F28D0D8FEF7DFFA00280C
:104DB000CCD1D5E7FFF699AD0135242DD6D194E5B8
:104DC0006069FEF7D3FA0028ABD021692E292AD1D9
:104DD0000B2384F84C30002504F150060B27304695
:104DE000FDF767FE2046FFF7AFFC2069431C3FF448
:104DF0007CAD4DBB20F02003452B25D165213046ED
:104E000084F84C70FDF755FE2046FFF79DFC2169A4
:104E10002B2901D02D29E8D13046FDF74AFE204646
:104E2000FFF792FCE1E70A23302984F84C30D2D115
:104E3000636943F02003623B162BCCD8404DDD4024
:104E400015F00105C8D1C6E7FEF786FA28B1216939
:104E50002E290DD184F84C70DEE72069FEF786FA22
:104E60000028F4D123692E2BF1D05F2BD7D03CE55D
:104E700021F020034A2BCFD1ECE7652F01D0632F1F
:104E800000D10135013601354DE7212F08D12369C5
:104E90003D2B7FF454AF2046FFF756FC3A2364E5E0
:104EA0002E2F0FD123692E2B02D163692E2B01D017
:104EB0005D235AE52046FFF747FC2046FFF744FCF8
:104EC0000E2352E50335334615F8027C632F18D0C4
:104ED000652F16D01B4AD35C84F84C30553BDBB2AF
:104EE000052B3FF602AD012202FA03F313F02A0F5D
:104EF00017D113F0150F3FF4F8AC636B13446363E1
:104F0000F3E415F8012C01362169914207D12046BE
:104F1000FFF71AFC3346652FDCD00235D4E7632F48
:104F2000FAE7636B013BEAE70123014684F84C3062
:104F300060E600BFA5970360F0D903600008002079
:104F40000120400080DA03607FB501AD0646742081
:104F500085E80E00FDF7C6FA0446034695E807000B
:104F600043F8046B002583E8070001236FF001027A
:104F70001420C4E90A320A22C4E90C55C4E90E23FC
:104F8000FDF7B0FA2021206404F15000FDF70DFD7B
:104F9000294604F16000FDF708FD236C20462567D3
:104FA0001D802561C4E90555FFF7CEFB2046FFF7BC
:104FB000CBFB2046FFF7C8FB2046FFF769FCA36C3C
:104FC000012B06D094F84C30062B1CBF072384F825
:104FD0004C30204604B070BD30B585B0054601ACFC
:104FE0002046FFF799FB284694E80E00FFF7ACFF38
:104FF00005B030BD30B585B00446014601AD284648
:105000001EF066F9204695E80E00FFF79DFF05B0FB
:1050100030BD10B5044690B1C3684068984704F1AC
:105020005000FDF7EBFC04F16000FDF7E7FC206C9D
:10503000FDF780FA2046BDE81040FDF77BBA10BDB1
:10504000F8B5054630200E461746FDF764FA072DE1
:1050500004460570C66001D0012D0FD1B368C3F3BB
:105060000F13A38207F0D2FD0423206120202783A1
:10507000E384FDF737FAE0622046F8BD014B5B5D43
:10508000EFE700BFBCDF036010B50446C06AFDF760
:1050900051FA2046BDE81040FDF74CBA30B5002269
:1050A0000446058D954201D8002030BDE36A03EB2C
:1050B000C20043688B42F8D00132F3E770B5044672
:1050C0000D461646FFF7EAFFC0B9E38C228D9A42DF
:1050D00008D30633E06AD900FDF71FFAE38CE062DB
:1050E0000633E384238DE26A591C02EBC300218559
:1050F00002F83360002345604370438070BD03466F
:1051000018465B68002BFBD1FFF7C8BFF8B54468B1
:105110000E462CB9F8BD042BFCD105230370F9E72A
:10512000254628466D68002DF4D077683946FFF78C
:10513000B5FF0028F5D00378043B022BEAD80625FA
:105140003570002239462046FFF7B8FF0378002B60
:10515000E1D105706468F4E7036A1B8B012B1EBF65
:10516000C3685B18C3607047836A10B504469B6FC1
:10517000406A9847238B226A0133918C9BB29942F3
:10518000238338BF938410BD038B013B10B5038389
:105190000446836A406AD3F880309847204601214C
:1051A000BDE81040FFF7D8BF2DE9F04F85B00446A9
:1051B0000D46984603921BB1CB8A43F00803CB827D
:1051C000039BEB83236ADA8A42F03002DA821B788F
:1051D000002B46D1A36A2946039AD3F8B060434610
:1051E000606AB44605B0BDE8F04F6047DB6A03EB88
:1051F000C60B13F83630053B012B1DD84FF00009C4
:1052000017E0EB6A03EBC90213F83930062B0ED115
:10521000DBF804105368994209D1A36A0AF1010A24
:10522000BBF802201B69606A1F460023B84709F1DA
:1052300001092B8D4B45E4DC0136236A1A8DB242FD
:10524000D4DCD4E90903BAF1000FC3D0CDF8008053
:105250005246D3F8B4402946039BA04705B0BDE8A9
:10526000F08F0026B246E8E7836A002110B50446B5
:10527000D3F88430406A9847A36A606A10211B6B98
:105280009847A36A606A0121D3F8C830984720463E
:105290000321BDE81040FFF75FBF38B5836A0446BD
:1052A0000022406A5B6C9847A36A606AD3F8BC50DE
:1052B00000231A461946A8472046BDE83840FFF7A4
:1052C000D3BF836A002289681B6D0909406A1847A9
:1052D000836A8968DB6B406A184710B50446084644
:1052E00011461A46FFF7ACFE236A43600023836031
:1052F000E3690BB9E06110BD1A469B68002BFBD136
:105300009060F8E72DE9F04F87B005460C4600AFF6
:1053100011B90121116013E011F0030619D10B79C5
:10532000682B06D1CB681B0913608C68002CF0D069
:10533000012604F00F03022B0DD12109002EE9D024
:10534000AB6A0022686ADB6A98471C37BD46BDE835
:10535000F08F0026EDE716B9A3681B091360A1467C
:1053600059F8043F4FEA132AC84609EB8A030AF1A9
:10537000FF3BBB6058F8040F0009FDF713FABB6848
:1053800083449845F6D10BF1070323F00703ADEBF7
:10539000030D0023E846C7F80CD059F8040F07F1B5
:1053A00014013B600009FDF714FA7A690146404692
:1053B0007A6029F0E3FF3B687A68013390449A45AC
:1053C00018D15946F868FDF731F9AB6A0146002259
:1053D000DB6A686A9847002EB7D00834BB689C42E5
:1053E000B3D054F8041F0022AB6A0909686A1B6D28
:1053F0009847F3E74FF02E0208F8012BCDE731B1C3
:1054000001F003038268134304BF0B688360704795
:105410002DE9F04107461E4659B111F0030510D1A0
:105420004B68D8B290420CD14FEA13280C1D454569
:1054300001DBBDE8F08154F8041F38460135B04760
:10544000F5E738463346BDE8F0411847F8B50E4653
:1054500011461A4600230446857807698370036164
:105460000E4BFFF7D5FF6368BBB9618A51B1228A41
:1054700042B9A36A606AD3F89C309847A36A606A0D
:105480001B6C9847238A3146628A2046FFF78CFEC0
:10549000003D276118BF0125A570F8BD0D5D0060B6
:1054A00070B5437805460C46012B06D1036A0A46BF
:1054B00002211B8BFFF711FF2061A268284621699A
:1054C0004C23BDE87040FFF7C1BF70B5134642786A
:1054D00005460C46012A04D10A460721FFF7FDFEC6
:1054E000A061A66928464623E2683146FFF7AEFF71
:1054F000B08A70BD024B9D228968FFF789BF00BF4B
:1055000015620060024B6B228968FFF781BF00BF04
:10551000E17D006038B543680D46044611464BB93D
:1055200005480AF095FB294660602046BDE83840F2
:10553000FFF765BF38BD00BF48EA0360014AFFF7C7
:10554000E9BF00BFF89803600B79092B4FF6FF7392
:1055500070B508BF858A044618BFC58A9D4202D12E
:10556000064AFFF7D7FF218B628BA36A8A1A606A0B
:1055700029465B6FBDE87040184700BF059903607E
:1055800038B5054679B101F00F03022B0DD10C0996
:10559000204607F0EFFF002806DA224605490648B4
:1055A0000AF0ECFB6860002038BD044AFFF7B2FF48
:1055B000F9E700BF1E990360DCE9036023990360EB
:1055C00070B5144605460E46127883B132B1032AEF
:1055D00004D0104ABDE87040FFF79CBF0326616805
:1055E0002670286AFFF78BFD00B1067070BD62B9A6
:1055F000012321462370006AFFF788FD2378012BE1
:10560000F4D1054A31462846E4E7062AEED0034A9B
:10561000E0E700BF2A99036037990360449903606B
:105620002DE9F341437804460D46012B1AD10B793D
:10563000102B0CBF4FF001084FF0000808D0036A90
:105640001B782BB9114A02B0BDE8F041FFF762BFE9
:1056500001AA6D2105F10800002631F0E9F907469D
:10566000B74202D102B0BDE8F081019B0022206A5E
:1056700053F8261001360909FFF720FD434602467C
:1056800029462046FFF79CFFEAE700BF4B990360DD
:1056900010B4026A044640780B46012804D1104633
:1056A0005DF8044B02F00DBEA16A606A20315DF81E
:1056B000044B02F015BE10B404460B46006A627833
:1056C000012A03D15DF8044BFFF7F8BCA16A02463A
:1056D000606A10315DF8044B02F002BE70B50546F9
:1056E0000C4600292DD0CA0706D5836A49105B6B8A
:1056F000686ABDE8704018478B0716D004F00F04A5
:105700000909022C0AD0062C0CD0062919D0836A6C
:10571000C9B2406A1B6BBDE870401847BDE87040D5
:10572000FFF7C9BF836A9B6BE2E7836A0968DB689E
:10573000406A98472279034B2146284653F8223085
:10574000D7E770BDC4DF03602DE9F74F05460C466F
:1057500016461F46204631F013FA40B16EB9AB6AC7
:1057600039469B6E686A03B0BDE8F04F1847204683
:1057700031F002FA20B1002EF1D103B0BDE8F08F74
:10578000002C48D0A30746D163684FEA132BDBB245
:105790001E2B18D1DEB1043404EB8B0B5C45ECD02E
:1057A0003B46324654F8041F2846FFF7CDFFF5E785
:1057B00043465AF8041F2846019209F10109FFF7F0
:1057C000C3FF019A11E01F2B1FD1002EE3D0D5F8A3
:1057D0000C8004F1040A4FF0000986F0010208F180
:1057E0000103EB600BF1FF330093009B4B45DFDCC3
:1057F0000BF101013B463246284654F82110FFF7D1
:10580000A3FFAB6A41469B6AACE7202B03D1A46897
:1058100086F001069EE721462846FFF75FFFAB6A48
:105820003A463146DB6E686A03B0BDE8F04F184770
:10583000026A38B5127804460B46072A06D0022AB7
:1058400004D0154ABDE83840FFF764BE9D6885B9AD
:10585000A36A1021606A1B6B9847A36A0021606AE3
:10586000D3F8C830984720460121BDE83840FFF7FB
:1058700073BCAB070BD12B79AF2B08D12046A9689D
:10588000FFF72CFF2046BDE83840FFF7EDBC294666
:105890002046FFF723FFE0E75D99036070B543788A
:1058A00004461546CE68012B06D1036A0A462946EE
:1058B0001B8BFFF712FD70610023716920461A46A9
:1058C000FFF772FCF1682046FFF708FF062D05D1AF
:1058D000A36A0021606AD3F884309847A36A012143
:1058E000606AD3F8B8500023AC461A46BDE8704051
:1058F000604738B505460C46C968FFF7EFFEA1685A
:105900002846BDE83840FFF7E9BE0B79342B70B567
:1059100004460D4610D18968FFF7E0FEED68AD68DA
:1059200085B9A36A1021606A1B6B9847A36A042299
:105930000221D3F89C301AE0836A1021406A1B6B65
:105940009847ECE7AB071FD12B799A2B13D1A36AA9
:105950001021606A1B6B9847A9680029E6D0204691
:10596000FFF7BCFEA36A04220321D3F89C30606ACF
:10597000BDE8704018479B2B06D1A9682046FFF769
:10598000ADFEEB689968E8E729462046FFF7A6FEDA
:10599000CCE710B504468968FFF7A0FE0021A36A92
:1059A000606ADB6CBDE81040184700002DE9F74342
:1059B0008D68044616465DB9002A75D0836A0222B6
:1059C0002946D3F89C30606A03B0BDE8F04318471D
:1059D00015F0030740F08A802B79372B13D132B1B1
:1059E000836A02220121406AD3F89C3098472046FE
:1059F0002946FFF773FEA36A606AD3F8A03003B0AC
:105A0000BDE8F04318479F2B70D1EB681A79A12AA3
:105A10005AD1A22101AA03F1080031F009F8A968BE
:105A2000804621B38B0722D10B79372B1FD136B19A
:105A3000A36A411C0222606AD3F89C309847A96887
:105A40002046FFF74BFEA36A4FF00109606AD3F8C6
:105A5000A0309847474510D1B9F1000F24D1A36A6F
:105A60000322791C606AD3F89C3098471CE02046DA
:105A70004FF00009FFF732FEECE7019B53F82710C7
:105A8000A9B18E0713D10E79A6F1370046424641DF
:105A90002046FFF723FEB9F1000F11D04EB9184A86
:105AA00029462046FFF736FD03B0BDE8F083002607
:105AB000EEE7A36A606AD3F8A03098470137C9E7D8
:105AC000002EFBD00F4AEBE7AB685BB19A0709D118
:105AD0001B79372B06D10422294603B0BDE8F043D9
:105AE000FFF7DCBE052229462046F6E72946204678
:105AF000FFF7F4FDA36A03220121D3F89C3062E78B
:105B000068990360769903600122FFF74FBF70B573
:105B10000D46C9680446FFF7E1FDA968A36AC1F311
:105B20000711606AD3F89430342916BF4039022136
:105B3000C9B2BDE870401847F8B54F680C4600265A
:105B400089683F0A0C340546FFF7C8FD0236083461
:105B5000B74200DCF8BD54F8041C2846FFF7BEFD30
:105B600054F8081CAB6A0909686AD3F898302539DB
:105B7000C9B29847EAE72DE9F0414E680C46012783
:105B80000546A6F10D08360A54F8081F5FFA88F892
:105B9000FFF7A4FDB74201DBBDE8F08154F8041F14
:105BA0002846FFF79BFDAB6A4146686AD3F89830F8
:105BB00001379847EEE72DE9F0414E680D468968B8
:105BC0000446360A0127FFF789FD032E89BFD4F862
:105BD0000C804FF0000808F10103E3607B1C9E423B
:105BE00022DC032E55D9E568606A6B1C2946E36008
:105BF000A36A9B6E9847A36A4146606A9B6A98476E
:105C0000A36A0121606A9B689847A36A606A1B6E59
:105C10009847A36A606ADB6D9847A36A2946606A61
:105C20009B6ABDE8F0411847023729692046FFF713
:105C300055FDB74207DAA36A606A5B6D9847A36AAD
:105C4000606A5B6E9847EB68A26A03F00F01606AB6
:105C5000D2F898200A2911D1C3F30713262B16BFB7
:105C6000353B0621D9B29047B74205DAA36A4246CE
:105C70000021606A1B6F98470835AFE719798529BD
:105C800001D13221EFE79B680BB90721EBE7332104
:105C9000E9E7BDE8F08110B504468968FFF71EFD0D
:105CA0000321A36A606AD3F89430BDE81040184716
:105CB0002DE9F0470D46D0F80C800446002755F832
:105CC000046F5FFA86F9360AA9F11E03D3F10009C1
:105CD00049EB030908F10103C360B74206DBA36A7D
:105CE0004146606A9B6ABDE8F0471847013755F89E
:105CF000041F2046FFF7F2FCB742F0DAA36A4246DF
:105D00004946606A1B6F9847E7E7000001F00F0300
:105D1000022B70B5044612D00B79492B09D0483BB1
:105D2000082B18D8DFE803F008170717171717050F
:105D300007000123A37070BD8E680D6975B9A37843
:105D4000002BF8D1638A002BF5D020461D4ABDE810
:105D50007040FFF7DFBBD1E90265EFE7A3783BB303
:105D6000238A01339BB2012B23820ED1618AD4E9AD
:105D70000903D1B1D3F89C3000229847A36A0222CC
:105D80000021606AD3F89C30984729462046FFF7E7
:105D9000A5FCA36A606A31099B6B9847A36A606A95
:105DA000D3F8A030BDE8704018471B6C9847E5E772
:105DB000638A2946204601336382BDE87040FFF7BD
:105DC0008DBC00BF839903602DE9F041C56804468E
:105DD000D1F80C800E46AB1C0022D8F808106F1CBE
:105DE000C3602B46FFF7B0FCB1682046FFF776FC96
:105DF000A36A3946606A9B6E9847A36A2946606A1F
:105E00009B6A9847A36A606A4FF0FF319B68984786
:105E1000D8F80C102046FFF761FCA36A3946606A87
:105E20009B6ABDE8F04118472DE9F047C668044673
:105E3000D0F814A00D46B31C06F10108B0F81A9072
:105E4000C360038B8682A0F816804383886830F095
:105E500097FEF8B9E768A8687B1CE36030F08CFE19
:105E600020B9A36A4146606A9B6E9847A36A394687
:105E7000606A9B6A9847E9682046FFF72FFCA36A8F
:105E80004146606A9B6A98473B460122A9682046C2
:105E9000FFF75AFC29692046C4F814A0A4F81A9008
:105EA000FFF71CFCA36A3146606A9B6ABDE8F047B5
:105EB00018472DE9F347C66804460D46731CC360B6
:105EC000886830F05DFE0246E8B9E7682046A968B8
:105ED0007B1CE3603B46FFF737FC2046E968FFF791
:105EE000FDFBA86830F048FED8B92B690BB96B6987
:105EF00023B1A36A3146606A9B6E9847A36A39460C
:105F0000606A9B6A984701AA712105F11000002779
:105F100030F08EFD81464F450BD169692046FFF771
:105F2000DDFBA36A3146606A9B6A984702B0BDE810
:105F3000F087019B53F82780D8F8080030F020FE46
:105F40000246F8B9D4F80CA02046D8F808100AF197
:105F50000103E3605346FFF7F7FB2046D8F80C1027
:105F6000FFF7BCFBD8F8080030F006FE0028D8D1B7
:105F7000A36A3146606A9B6E9847A36A5146606A7D
:105F80009B6A98470137C6E7184B2DE9F041D3F8D3
:105F9000387304460D463FBBC66801228968731CEE
:105FA000C3603346FFF7D0FBA36A1F2101225B6960
:105FB000606A9847E96851B12046FFF78FFBA36AF2
:105FC0003A460121D3F8B8503B46606AA847A36A15
:105FD0000121606AD3F8C4309847A36A3146606AE9
:105FE0009B6ABDE8F0411847BDE8F0810008002039
:105FF00070B58D6804463DB9836A2946D3F8C4302C
:10600000606ABDE870401847AB070ED12B795E2B54
:106010000BD1A968FFF762FBE9682046FFF75EFB3A
:10602000A36A0221D3F8C430EAE729462046FFF7E5
:1060300055FBA36A0121D3F8C430E1E710B504464B
:106040008968FFF74BFBA36A606ADB6DBDE810400F
:1060500018470000026A2DE9F04112780446072A29
:1060600004D01B4ABDE8F041FFF754BA8D685DB912
:10607000836A1021406A1B6B9847A36A606AD3F851
:10608000C030BDE8F041184715F003021DD12B794F
:106090001B2B1AD1C668EF68731CB968C3603346FE
:1060A000FFF752FBA9682046FFF718FBA36A606A56
:1060B000D3F8C0309847A36A3146606A9B6A984714
:1060C000F9682046FFF70AFBD7E72946F9E700BF42
:1060D000A19903602DE9F0410C46054654F8046F80
:1060E000360A04EB8607BC4208D1AB6A3146686ABF
:1060F0000022D3F89C30BDE8F041184754F8041F43
:106100002846FFF7EBFAEEE78968034610B441B979
:10611000826A406AD2F89C400A4623465DF8044BE6
:1061200018474A68120A022A0BD1CA684AB1940772
:1061300007D11279AC2A04D106225DF8044BFFF78F
:10614000ADBB18465DF8044BFFF7C4BF2DE9F04125
:106150000E4605460F46002456F8043F4FEA132822
:10616000444501DBBDE8F08156F8041F2846FFF7DF
:10617000B5FA6B683BB10234284657F82410BDE8E5
:10618000F041FFF73CB90134EAE710B50446FFF7E8
:10619000DDFF2221A36A606AD3F89830BDE8104081
:1061A000184770B58D68044645B9836A01222946AF
:1061B000D3F89C30606ABDE870401847A9071ED12B
:1061C0006B68DAB2922A1AD11B0A022B0CD1EB6847
:1061D00053B19A0708D11B79AC2B05D1294603226C
:1061E000BDE87040FFF75ABB29462046FFF7AEFFD7
:1061F0006968A36A0122090AD3F89C30DAE72946C4
:106200002046FFF76BFAA36A0122D3F89C301146AF
:10621000D0E7000001F00F03022B2DE9F0470546FF
:106220000C4604D10909BDE8F047FFF731BA00294F
:1062300055D011F0030652D10B792C2B38D1896837
:10624000FFF74CFAE668002E49D016F0030846D155
:1062500077683346FAB28E2A09D13F0A06F104095B
:1062600007F1FF3AC24510DC013756F827301A799A
:10627000312A12D199682846FFF730FAAB6A686A6A
:106280000221DB6CBDE8F047184759F8041F284687
:1062900008F10108FFF722FAE4E7322A1FD19968D2
:1062A0000222AB6A686A09091B6DBDE8F04718470E
:1062B0002D2B14D18C6894B163681B0A022B06D075
:1062C000271D6368B6EB132F10D3BDE8F087E36892
:1062D000002BF5D09A07F3D11B79AC2BF0D12146D6
:1062E0002846064ABDE8F047FFF714B957F8041FDF
:1062F00028460136FFF78EFFE3E700BFAD99036044
:106300002DE9F8430446006A17460D46C68AB207CF
:1063100006D5374A29462046BDE8F843FFF7FAB8C4
:1063200001F00F02022A18D1A37809098BB1838BDF
:10633000013383834FF000094FF00108002954D046
:106340000022FEF7BBFE03780646002B37D0294A11
:10635000E0E7438B01334383ECE70A798946BA428D
:106360000BD18968A37809091BB1838B013383831F
:10637000E2E7438B01334383DEE79A4217D1A378E8
:10638000002BC6D10122A270896871B301F00F02FF
:1063900046F004064FF00308022AC68213BF89465E
:1063A00009099946D9F8081018BF0909C6E789688C
:1063B00046F002064FF005080909C682BEE704232D
:1063C00080F801800370236A1B8B032B0DD1482FAB
:1063D0000BD1B9F1000F08D0D9F80C102046FFF707
:1063E000CFF8737843EA00137370BDE8F88300BFF9
:1063F000F4980360B799036049234822FFF780BFF0
:106400004F234E22FFF77CBF2DE9F04F0E4601626D
:10641000002142708DB00446C16015463378072BC9
:1064200005D0894A0DB0BDE8F04FFFF773B8012AD7
:1064300005D0036B021D2946C06A1B689847637824
:10644000D6F80C80032B10D10BAA462108F10C00C2
:1064500030F0EEFA236B01460B9A9B68E06A98478E
:1064600063687083002B40F0B880D8F81010C1B179
:1064700001F00F03022B10D10B09752B3FD006D86A
:106480003E2B3ED05E2B0CD0704A2046CAE740F22D
:10649000B5429342F8D1032304E06D4A2046FFF74A
:1064A00039F8022304934FF00009D8F8143009AAF0
:1064B000192108A8089330F0BBFA0690069B99456D
:1064C00021D16378012B16D9236B04995B68E06AAC
:1064D00098476378042B0ED1206A0521049BE26A59
:1064E0000393438B02930023CDE90033D2E90232B8
:1064F000006906F09BFB6368002B6ED114E000235B
:10650000D0E70123CEE7099B4FEA890B53F8291006
:106510000B79082B02D109F10109CFE7052B06D031
:106520004C4A2046FEF7F6FF0DB0BDE8F08FCB6871
:10653000002BF5D18B681A792C2AF1D19E6806F0D0
:106540000F02022AECD1D3F80CA0BAF1000FE7D069
:106550001AF0030FE4D19AF80430302BE0D10AAAE4
:10656000A4210AF10800360930F062FA40F2DB3368
:1065700007469E421BD1012805D10A9A136803F0F1
:106580000F03022B04D0344A099B53F80B10C8E7C1
:10659000E168012D01F10103E3601AD01268236B59
:1065A0001209E06ADB68984798B92C4AECE740F298
:1065B00022339E4215D1012803D10A9B1968CB07CB
:1065C00001D4274AE0E7012D03D04910E06A02F028
:1065D00099FB6368002B9ED0D046D8F80030A360AA
:1065E000A2E740F262339E4223D1012804D90A9BDC
:1065F0001A6812F0010601D11A4AC5E7012DE8D048
:10660000531007930A9A0BA952F8260030F01CFA8F
:1066100008B9154AB8E7E36A01360B9805930AF002
:10662000B5FD07990246059802F073FBB742E9D120
:10663000CFE7012DCDD0236B02463146E06AD3F877
:1066400010B00A9BD847C4E7C1990360CE99036094
:10665000D2990360DA990360E0990360EC990360D2
:10666000F0990360FC9903600E9A036010B4026A0B
:10667000044640780B46012804D110465DF8044BCF
:1066800001F01FBEA16A606A18315DF8044B01F089
:1066900027BE00002DE9F14F8F0704460D46164630
:1066A00012D001F00F03022B17D102F0FD060909E9
:1066B000012E04D001B0BDE8F04FFFF7D7BF01B005
:1066C000BDE8F04FFEF7F7BF4968CBB22D2B7BD06A
:1066D0000BD8062B0DD02C2B12D04F4A2946204622
:1066E00001B0BDE8F04FFEF715BF2E2B7FD09D2BDC
:1066F000F3D1002EF1D105F10802090A20467BE012
:10670000022A02D0A968FEF7E9FFEF68002FE4D063
:1067100017F00309E1D17B68B846DAB28E2A0DD1B1
:10672000022E4FEA132805D007F1040A08F1FF3BB7
:10673000D94511DB08F1010857F8288098F8043092
:10674000312B24D1022E0FD1A36A606A5B6E984769
:10675000A36ADB6C012115E05AF8041F204609F1F9
:106760000109FEF7BBFFE3E7D8F808102046FEF763
:10677000B5FF012EA36AECD19B6D606A9847A36AAE
:106780000021DB6C606A01B0BDE8F04F1847322B86
:10679000A3D1012ED4E909030CD15B6D9847A36AFC
:1067A000D8F8081000221B6D0909606A01B0BDE825
:1067B000F04F1847022E01D11B6E9847A36A0122A1
:1067C000D8F808101B6DEFE7AA68002A85D0002EC4
:1067D00083D15168090A022907D1D3682BB19807E0
:1067E00003D11B79AC2B3FF478AF083286E7002A3F
:1067F0007FF473AFA96821B901B0BDE8F04F00F094
:1068000075B88E0703D10B790A46922BE1D005F1BA
:106810000802012172E700BF199A03602DE9F047D1
:10682000C7681E4604460D46BB1C3946904607F114
:106830000109C360836A406A9B6A9847A36A494614
:10684000606AD3F888309847A96800222046FFF78D
:1068500021FF2D69002D2DD141462046FEF73EFF38
:10686000236A1978A36A06291DD1D3F8C8302946AE
:10687000606A984720460121FEF76EFCA36A606AB1
:10688000DB6D9847A36A3946606A9B6E9847A36A96
:10689000606A49469B6A9847A36A606AD3F88C305D
:1068A000BDE8F0471847B200D3F8A430606A05325B
:1068B0009847E7E72B79AD2B07D1A9683B46002223
:1068C0002046FEF741FFED68C4E7E9682046FEF781
:1068D00005FFA36A606A0121D3F884309847731CCE
:1068E000424629462046FFF799FFCBE72DE9F843BA
:1068F00004460D46904601F1FF3900264FF0FF3760
:10690000B9F1FF3F0CD17B1C05D1A36A2946606A0F
:10691000D3F8A83098470026AE421DD1BDE8F883D1
:1069200058F8261071B18A070CD10B79222B09D1A6
:1069300001370BD1A36A37464A463146D3F8AC300B
:10694000606A9847013609F1FF39D9E72046084ABD
:10695000BDE8F843FEF7DEBD58F82610B7424FF009
:106960000002204608BF89680136FFF793FED3E78F
:10697000249A03602DE9F0470446904699460F4655
:1069800021B91946BDE8F047FEF7A8BEC668731CDA
:10699000C360156835B315F0030A23D12B797B2B1F
:1069A00020D1A968FEF79AFE524631462046FEF7EE
:1069B000DBFB5246E9682046FFF76CFE4B4608F1C8
:1069C0000402791E2046FFF7D5FFA36A3146606AAC
:1069D000DB6F984720460321FEF7BEFBBDE8F0477A
:1069E000FEF7D2BB29462046FEF778FE204600225D
:1069F0003146FEF7B9FBA36A606ADB6D9847DDE7B5
:106A000037B50C46054601AA7A2104F1080030F09A
:106A10000FF8E3680146019A2846FFF7ABFF03B081
:106A200030BDD1E902232DE9F04F02F00F0289B009
:106A300004460D46022A40F00181002B00F0FE8042
:106A4000980740F0FB801A792C2A40F0F7809A686A
:106A500002F00F01022940F0F18012097C2A40F077
:106A6000ED80DB681A79302A40F0E8809B6807AA3D
:106A7000A42106A806932FF0DBFF431E022B00F291
:106A8000DD80079B01281A6800F0CA80022800F008
:106A9000C5809E68F10740F1D180710800F0CE807A
:106AA000D3F8049032B1930704D11179A6390229A1
:106AB00040F2C480B9F1000F08D019F0030F05D1DE
:106AC00099F80410A639022940F2B880AB6819F091
:106AD00001086F6901932B69218B02936369E56853
:106AE0000493638B05F1010B618305F104010393AA
:106AF00005F1020305F1030AA5820593A4F816B077
:106B0000E16005D1494620460592FEF7E7FD059A6A
:106B100011462046FEF7E2FDA26A5146606A926E77
:106B20009047A26AA91C606A926A9047A26A606A4A
:106B3000526D9047002201992046FFF7ABFD029964
:106B40002046FEF7CBFDA26A5946606A926A9047DA
:106B500031462046FEF7C2FDA26A0E21606AD2F8D5
:106B600098209047A26A5146606A926A9047A26A4A
:106B7000B8F1000F58D1936D606A9847A36A606AB4
:106B80001B6E9847002EA36A606AACBF00210121EA
:106B9000D3F898309847A36AAA1C0121DB6E606A7B
:106BA0009847049B6361039B6383002F44D0A36ACF
:106BB000606ADB6D9847B8F1000F03D1A36A606A81
:106BC000DB6D984739462046FEF788FDE668606A27
:106BD000731C3146E360A36A9B6E984788F00101FD
:106BE000A36A0131606A9B689847A36A2946606A74
:106BF0009B6A9847A36A606ADB6D9847B8F1000FFB
:106C000003D1A36A606ADB6D984727B1A36A314656
:106C1000606A9B6A984709B0BDE8F08F03263FE79A
:106C200091460326024645E7606A526D9047494601
:106C30002046FEF753FDA5E73E46D6E7E668204628
:106C4000238BB4F81A90771C63836FEA4643D4F819
:106C500014A006F102086FEA5343E968E782A382B1
:106C6000F31CE360FEF73AFDA36A606A0121D3F8E2
:106C700084309847A36A3946606A9B6A9847A36A3A
:106C80004146606AD3F8883098470022A9682046B8
:106C9000FFF700FD29692046FEF720FDA36A39466B
:106CA000606A9B6E9847A36A4146606A9B6A9847F0
:106CB000A36A606AD3F88C30984769692046C4F8A3
:106CC00014A0A4F81A90FEF709FDA36A3146606A81
:106CD0009B6A09B0BDE8F04F18472DE9F74F04460D
:106CE000174698460E4629B9194603B0BDE8F04F3D
:106CF000FEF7F4BCC5682B1D05F1010A05F1020B76
:106D000005F10309C3601368002B00F0F38013F052
:106D1000030240F0EF8019797B2940F0EB809968FD
:106D200001920093FEF7DAFCA16A606A496D884718
:106D30004FF440712046FEF7B0FA2046DDE90032FC
:106D4000D968FFF7A7FC022229462046FEF70CFA75
:106D5000A36A606A03219B6898473A1D4346711EE7
:106D60002046FFF7BAFFA36A606A6FF002019B68D2
:106D70009847A36A1021606A1B6B9847A36A606AF0
:106D80001B6E9847A36A5146606A9B6E9847A36A38
:106D90002946606A9B6A9847A36A606A5B6D984758
:106DA000A36A0122606A5B6921219847A36A606A2D
:106DB0000821D3F898309847A36A5A460021606AA0
:106DC000DB6E9847A36A606A5B6D9847A36A606A46
:106DD0005B6E9847A36A606A1B6E9847A36A00229D
:106DE00040F20131606A5B6C9847A36A606A5B6E2F
:106DF0009847A36A606A5B6E9847A36A606A5B6D96
:106E00009847A36A00220A21606A1B6D9847A36A0B
:106E1000606A1B6E9847A36A606A10211B6B9847D3
:106E2000A36A0321606AD3F8BC5000231A46A8471E
:106E30002046FEF719FAA36A4A460021606ADB6E13
:106E40009847A36A606ADB6D9847A36A606A10215D
:106E50001B6B9847A36A4946606A9B6E9847A36A72
:106E6000606A02219B689847A36A5946606A9B6AD8
:106E70009847A36A606A5B6E9847A36A606A5B6E14
:106E80009847A36A5146606A9B6A9847A36A0022A2
:106E9000606A5B6C40F201319847A36A1021606A16
:106EA0001B6B9847A36A606A5B6D9847A36A606A28
:106EB0005B6D9847A36A0321606AD3F8BC50002336
:106EC0001A46A8472046FEF7CFF9A36A606ADB6D31
:106ED0009847A36A606A4FF0FF319B689847A36A9E
:106EE000606A49469B6A9847204603B0BDE8F04F68
:106EF000FEF74AB919462046FEF7F0FBA36A606A1E
:106F00005B6D984720464FF44071FEF7C6F9A36ABF
:106F1000606ADB6D984716E72DE9F041CD680446BD
:106F20000E4665BB0378C3B1036A1D78ADB940F264
:106F30000D31FEF7C0FBB1682046FEF7CFFBA36A18
:106F40002A460121D3F8B8602B46606AB047A36A8D
:106F5000606ADB6DBDE8F0411847B1688B0707D068
:106F600001F00F03022B08D12046FEF7B7FBEEE736
:106F70000029F9D00B793A2BF6D1BDE8F081AF07A3
:106F800040F0AF806B68DAB25B2A11D1ED68002D5A
:106F90004AD1006A0378072BEFD1896801F00F030B
:106FA000022BEAD10422BDE8F041D140FEF786B8B9
:106FB000562A13D101228968FFF76CFBE968204645
:106FC000FEF78CFBA968A36A0909606AD3F89830B8
:106FD0003F39C9B298470222B1687DE0572A23D1D0
:106FE0001B0A5F1E013355F82310FEF777FB002FB5
:106FF00003DDA36A606A5B6D9847B16804350026BB
:1070000000222046FFF746FBBE42B6DA0136BE42FA
:1070100003DAA36A606A5B6D9847002255F8041F83
:107020002046FFF737FBEFE7A9075AD16B68DAB2C2
:10703000062A56D1B768002F53D0BA0751D17A68C3
:10704000D1B206294DD11B0A4FEA1228B3EB122FF9
:1070500047D1A8F10203012B43D8BB6823B198079D
:1070600002D11B79222B3CD0FB6823B1990702D1B6
:107070001B79222B35D0B8F1020F06D03B6923B122
:107080009A0702D11B79222B2BD0A9682046FEF744
:1070900025FBE9682046FEF721FBB8F1030F07D175
:1070A00020462969FEF71AFBA36A606A5B6E98475F
:1070B000A36A606A1B6E98470022B9682046FFF7F2
:1070C000E9FA0022F9682046FFF7E4FAB8F1030F65
:1070D0007FF453AF002239692046BDE8F041FFF745
:1070E000D9BA29462046FEF7F9FA002274E70000D3
:1070F0000023032A2DE9F04104460D46164642704E
:107100000162C36080F8342002D1C08E50BBA063FE
:107110004FF00008A36A3146606A1B682A46A4F84B
:107120003680984706212046FEF716F86778EE6805
:10713000012F04BFA5F82280A5F82480B6B1B207BC
:1071400014D133793F2B11D1B168FEF7C7FAA36A86
:10715000606AD3F8C0309847A36A606A5B68BDE88C
:10716000F04118478000FBF7D6F9D0E72B78072BC2
:1071700000F29380DFE803F0049125414141410E84
:1071800031462046FEF7AAFAA36A1B6B1021606AFB
:107190009847DCE7012F12D1002346222046A37036
:1071A000544BF168FEF734F92B8B032B07D131696F
:1071B0002046FEF7E5F9EB8A43EA8013EB8271691A
:1071C000DFE7A36A3168DB68606A98476378012B60
:1071D00007D100234C222046A370474BB168FEF72D
:1071E00017F9F1682046FEF779FAEB8ADB07AED58E
:1071F000A36A606ADB6D9847C6E7012FD6F80C805A
:1072000005D104223946206AFDF758FF6F83A36A2F
:107210003168DB68606A98472B78032B24D1A36A16
:107220000122D3F89C300021606A98472B78062B06
:1072300028D1A36A606A1B6C984701212046FEF79B
:107240003AFAA36A606A1B6C9847A36A606A1B6C6F
:1072500098470023B26841462046FFF7DFFA2B78B3
:10726000062B7FF474AF8FE7042B04D1A36A0222AC
:10727000D3F89C30D7E7052BD8D1A36A0322D3F8E3
:107280009C30D0E720460121FEF715FAA36A0121C0
:10729000606AD3F884309847DBE7012F04D10422D9
:1072A0000A212846FDF70AFF17212046FEF703FAB8
:1072B00016212046FFF7DAF9B168A36A0909606A66
:1072C0009B6B98471A212046FFF7D0F93169204679
:1072D000FEF704FA0A212846FDF7E0FE0378042BA6
:1072E000A36A3FF452AF1D690A2142880023606AF5
:1072F000A8472CE7F963006001640060036A10B5D9
:1073000004461A8BFEF7E1F801462046BDE810401E
:10731000FFF7ACB92DE9F04F8D6885B004462B79A5
:10732000032B0AD12946FFF7E9FFAA69D38A43F064
:107330000103D38205B0BDE8F08F026AD28AD2077A
:1073400006D4624A294605B0BDE8F04FFEF7E2B820
:10735000162B40F0AD80C668E968331D06F1010BBD
:1073600006F1020906F1030AC360FEF7B7F9A36A42
:10737000606A00225B6C40F202319847A36A606A3F
:10738000D3F8BC7000231A461946B8476369E7680A
:107390000093638B07F10108606A0193BB1C4146AF
:1073A000A782E360238BA4F816806383A36A9B6A99
:1073B0009847012259462046FDF7D6FEA36A606A27
:1073C0005B6D9847204640F20331FDF766FFA968E0
:1073D00020460022FFF75EF9A36A00224946606A50
:1073E000D3F890309847A36A5946606A9B6A9847D9
:1073F000A36A606AD3F8CC309847A36A606A5B6D71
:107400009847A36A0122606A5B6940F2BD219847F0
:10741000A36A606A0821D3F898309847A36A524655
:107420000021606ADB6E9847A36A606ADB6D98474B
:10743000A36A01223146606AD3F890309847A36A64
:107440005146606A9B6A9847A36A0121606A9B68FB
:1074500098472046FDF798FEA36A606AD3F8D030BB
:107460009847A36A4946606A9B6A984729692046FB
:10747000FEF734F9A36A4146606A9B6E9847009B09
:107480003146606A6361019B6383A36A9B6A984784
:1074900069692046FEF722F9A36A606A39469B6A49
:1074A0009847A36A606ADB6D05B0BDE8F04F1847E6
:1074B00003AA7A2105F108002FF0BAFAEB68014619
:1074C000039A2046FFF709FC34E700BF2B9A0360BC
:1074D0002DE9F04F85B0C5681E4604460E9B0F4649
:1074E0009346294603936B1C01220293AB1CC36095
:1074F000FDF73AFE394620460027FEF7EFF8A36A6B
:107500000022691CD3F89030606A9847A36A294624
:10751000606A9B6A9847A36A606AD3F8CC30984740
:10752000D4F80C9009F10103E3605F4518DB2046B5
:10753000FDF72AFEA36A606AD3F8D0309847A36AA1
:1075400002999B6A606A984703992046FEF7C6F83D
:10755000A36A4946606A9B6A05B0BDE8F04F1847C8
:107560003346D4F80CA0043601371A6801920AF1A8
:107570000102E260019AD2F80880B8F1000F4FD101
:10758000BB4542D10025A36A606AA846DB6D9847D7
:10759000019B2046D968FEF7A1F825B3A36A102104
:1075A000606A1B6B9847A36A4146606A9B6A98476A
:1075B000A36A0121606A9B689847A36A1021606AE8
:1075C0001B6B984729462046FFF750F8294620466E
:1075D000FEF75EF8A36A606A4FF0FF319B68984738
:1075E0002046FDF7D1FDA36A01224946606AD3F81F
:1075F00090309847A36A5146606A9B6A9847A36A8D
:107600000121606A9B6898478FE720461E4A1968E7
:10761000FDF780FF204605B0BDE8F04FFDF7B4BD93
:1076200018F003052DD198F804204346762A03D19B
:10763000DD68D8F808802D09A36A606A5B6D9847F9
:1076400041462046FEF74AF8A36A0821606AD3F84B
:1076500098309847A36A52460021DB6E606A9847CB
:10766000002D8FD029462046FFF700F8D4F80C8073
:107670000222204608F101034146E360FDF774FD54
:1076800086E70025D8E700BF429A03602DE9F3475B
:10769000C768984616460D467B1C022239460446AA
:1076A000C360DDE90AA9FDF75FFD002E2DD1A36AB5
:1076B0000321606A9B68984729462046FEF70EF82A
:1076C000A36A6FF00201606A9B689847A36A102161
:1076D000606A1B6B9847A36A3946606A9B6A984741
:1076E000A36A606A01219B68984749462046FDF7D6
:1076F000F5FFA36A606A4FF0FF319B689847204608
:1077000002B0BDE8F047FDF73FBD4346324629468B
:107710002046CDF800A0FFF7DBFED7E77FB5CD68A8
:1077200006460C462B79782B09D1AB6801930023D0
:1077300000931A468968FFF7A9FF04B070BD742B47
:1077400003AA4FF0770116D105F108002FF070F968
:107750002B6902463BB9EB6800933046039BA16856
:10776000FFF7B6FEE9E79B6830460193EB680093AC
:10777000039BA168DFE704F10C002FF059F9002307
:107780000246E9E701F00F03022B70B504460D46EF
:10779000164602D01E4AFDF7BDFE31462046FDF7D3
:1077A0009DFFA36A606A2E095B6D98476378012B81
:1077B0000FD1226A1378033B032B0AD85068314655
:1077C00000F07FFD0278032A09D13146206AFDF7D7
:1077D00075FC31462046BDE87040FEF747BF0022E9
:1077E0003146206AFDF76AFC236A02465B685B68E3
:1077F000002B0CBF0123002304D00178012904BF12
:107800000021017029462046FDF7DAFEE1E700BFBE
:10781000199A03602DE9F04F002687B04FF0010B55
:107820000446B1463746B04603A81D46CDE90221BD
:1078300005AAA4212FF0FCF80190019B9E4211D1D2
:1078400027B1A36A4946606A5B6B9847029AD4E9FC
:107850000903002A76D0D3F8BC403B46424629466D
:10786000A04713E0059B53F826A0BAF1000F5BD0A8
:107870001AF0030F58D19AF80420A62A1AD1B80793
:1078800007D5324A51462046FDF744FE07B0BDE811
:10789000F08F1D2E01D92E4AF4E70BFA06F20135BE
:1078A0000127DAF80810204649EA0209FDF716FF19
